{
  "_format": "hh-sol-artifact-1",
  "contractName": "PromptMonsters",
  "sourceName": "contracts/prompt-monsters/PromptMonsters.sol",
  "abi": [
    {
      "inputs": [],
      "stateMutability": "nonpayable",
      "type": "constructor"
    },
    {
      "anonymous": false,
      "inputs": [
        {
          "indexed": false,
          "internalType": "address",
          "name": "previousAdmin",
          "type": "address"
        },
        {
          "indexed": false,
          "internalType": "address",
          "name": "newAdmin",
          "type": "address"
        }
      ],
      "name": "AdminChanged",
      "type": "event"
    },
    {
      "anonymous": false,
      "inputs": [
        {
          "indexed": true,
          "internalType": "address",
          "name": "owner",
          "type": "address"
        },
        {
          "indexed": true,
          "internalType": "address",
          "name": "approved",
          "type": "address"
        },
        {
          "indexed": true,
          "internalType": "uint256",
          "name": "tokenId",
          "type": "uint256"
        }
      ],
      "name": "Approval",
      "type": "event"
    },
    {
      "anonymous": false,
      "inputs": [
        {
          "indexed": true,
          "internalType": "address",
          "name": "owner",
          "type": "address"
        },
        {
          "indexed": true,
          "internalType": "address",
          "name": "operator",
          "type": "address"
        },
        {
          "indexed": false,
          "internalType": "bool",
          "name": "approved",
          "type": "bool"
        }
      ],
      "name": "ApprovalForAll",
      "type": "event"
    },
    {
      "anonymous": false,
      "inputs": [
        {
          "indexed": true,
          "internalType": "address",
          "name": "beacon",
          "type": "address"
        }
      ],
      "name": "BeaconUpgraded",
      "type": "event"
    },
    {
      "anonymous": false,
      "inputs": [
        {
          "indexed": false,
          "internalType": "uint8",
          "name": "version",
          "type": "uint8"
        }
      ],
      "name": "Initialized",
      "type": "event"
    },
    {
      "anonymous": false,
      "inputs": [
        {
          "indexed": true,
          "internalType": "address",
          "name": "previousOwner",
          "type": "address"
        },
        {
          "indexed": true,
          "internalType": "address",
          "name": "newOwner",
          "type": "address"
        }
      ],
      "name": "OwnershipTransferred",
      "type": "event"
    },
    {
      "anonymous": false,
      "inputs": [
        {
          "indexed": true,
          "internalType": "address",
          "name": "publisher",
          "type": "address"
        },
        {
          "indexed": false,
          "internalType": "string",
          "name": "oldValue",
          "type": "string"
        },
        {
          "indexed": false,
          "internalType": "string",
          "name": "newValue",
          "type": "string"
        }
      ],
      "name": "SetExternalLink",
      "type": "event"
    },
    {
      "anonymous": false,
      "inputs": [
        {
          "indexed": true,
          "internalType": "address",
          "name": "from",
          "type": "address"
        },
        {
          "indexed": true,
          "internalType": "address",
          "name": "to",
          "type": "address"
        },
        {
          "indexed": true,
          "internalType": "uint256",
          "name": "tokenId",
          "type": "uint256"
        }
      ],
      "name": "Transfer",
      "type": "event"
    },
    {
      "anonymous": false,
      "inputs": [
        {
          "indexed": true,
          "internalType": "address",
          "name": "implementation",
          "type": "address"
        }
      ],
      "name": "Upgraded",
      "type": "event"
    },
    {
      "inputs": [
        {
          "internalType": "address",
          "name": "to",
          "type": "address"
        },
        {
          "internalType": "uint256",
          "name": "tokenId",
          "type": "uint256"
        }
      ],
      "name": "approve",
      "outputs": [],
      "stateMutability": "nonpayable",
      "type": "function"
    },
    {
      "inputs": [
        {
          "internalType": "address",
          "name": "owner",
          "type": "address"
        }
      ],
      "name": "balanceOf",
      "outputs": [
        {
          "internalType": "uint256",
          "name": "",
          "type": "uint256"
        }
      ],
      "stateMutability": "view",
      "type": "function"
    },
    {
      "inputs": [
        {
          "internalType": "uint256",
          "name": "tokenId_",
          "type": "uint256"
        }
      ],
      "name": "burn",
      "outputs": [],
      "stateMutability": "nonpayable",
      "type": "function"
    },
    {
      "inputs": [],
      "name": "contractURI",
      "outputs": [
        {
          "internalType": "string",
          "name": "uri",
          "type": "string"
        }
      ],
      "stateMutability": "view",
      "type": "function"
    },
    {
      "inputs": [
        {
          "internalType": "uint256",
          "name": "tokenId",
          "type": "uint256"
        }
      ],
      "name": "getApproved",
      "outputs": [
        {
          "internalType": "address",
          "name": "",
          "type": "address"
        }
      ],
      "stateMutability": "view",
      "type": "function"
    },
    {
      "inputs": [
        {
          "internalType": "uint256[]",
          "name": "tokenIds_",
          "type": "uint256[]"
        }
      ],
      "name": "getMonsters",
      "outputs": [
        {
          "components": [
            {
              "internalType": "string",
              "name": "name",
              "type": "string"
            },
            {
              "internalType": "string",
              "name": "flavor",
              "type": "string"
            },
            {
              "internalType": "string[]",
              "name": "skills",
              "type": "string[]"
            },
            {
              "internalType": "uint32",
              "name": "lv",
              "type": "uint32"
            },
            {
              "internalType": "uint32",
              "name": "hp",
              "type": "uint32"
            },
            {
              "internalType": "uint32",
              "name": "atk",
              "type": "uint32"
            },
            {
              "internalType": "uint32",
              "name": "def",
              "type": "uint32"
            },
            {
              "internalType": "uint32",
              "name": "inte",
              "type": "uint32"
            },
            {
              "internalType": "uint32",
              "name": "mgr",
              "type": "uint32"
            },
            {
              "internalType": "uint32",
              "name": "agl",
              "type": "uint32"
            },
            {
              "internalType": "uint16",
              "name": "maxSkills",
              "type": "uint16"
            },
            {
              "internalType": "uint16",
              "name": "maxSkillsSet",
              "type": "uint16"
            }
          ],
          "internalType": "struct IPromptMonsters.Monster[]",
          "name": "monsters",
          "type": "tuple[]"
        }
      ],
      "stateMutability": "view",
      "type": "function"
    },
    {
      "inputs": [
        {
          "internalType": "string",
          "name": "externalLink_",
          "type": "string"
        }
      ],
      "name": "initialize",
      "outputs": [],
      "stateMutability": "nonpayable",
      "type": "function"
    },
    {
      "inputs": [
        {
          "internalType": "address",
          "name": "owner",
          "type": "address"
        },
        {
          "internalType": "address",
          "name": "operator",
          "type": "address"
        }
      ],
      "name": "isApprovedForAll",
      "outputs": [
        {
          "internalType": "bool",
          "name": "",
          "type": "bool"
        }
      ],
      "stateMutability": "view",
      "type": "function"
    },
    {
      "inputs": [
        {
          "components": [
            {
              "internalType": "string",
              "name": "name",
              "type": "string"
            },
            {
              "internalType": "string",
              "name": "flavor",
              "type": "string"
            },
            {
              "internalType": "string[]",
              "name": "skills",
              "type": "string[]"
            },
            {
              "internalType": "uint32",
              "name": "lv",
              "type": "uint32"
            },
            {
              "internalType": "uint32",
              "name": "hp",
              "type": "uint32"
            },
            {
              "internalType": "uint32",
              "name": "atk",
              "type": "uint32"
            },
            {
              "internalType": "uint32",
              "name": "def",
              "type": "uint32"
            },
            {
              "internalType": "uint32",
              "name": "inte",
              "type": "uint32"
            },
            {
              "internalType": "uint32",
              "name": "mgr",
              "type": "uint32"
            },
            {
              "internalType": "uint32",
              "name": "agl",
              "type": "uint32"
            },
            {
              "internalType": "uint16",
              "name": "maxSkills",
              "type": "uint16"
            },
            {
              "internalType": "uint16",
              "name": "maxSkillsSet",
              "type": "uint16"
            }
          ],
          "internalType": "struct IPromptMonsters.Monster",
          "name": "monster_",
          "type": "tuple"
        }
      ],
      "name": "mint",
      "outputs": [],
      "stateMutability": "nonpayable",
      "type": "function"
    },
    {
      "inputs": [
        {
          "internalType": "address",
          "name": "to_",
          "type": "address"
        },
        {
          "components": [
            {
              "internalType": "string",
              "name": "name",
              "type": "string"
            },
            {
              "internalType": "string",
              "name": "flavor",
              "type": "string"
            },
            {
              "internalType": "string[]",
              "name": "skills",
              "type": "string[]"
            },
            {
              "internalType": "uint32",
              "name": "lv",
              "type": "uint32"
            },
            {
              "internalType": "uint32",
              "name": "hp",
              "type": "uint32"
            },
            {
              "internalType": "uint32",
              "name": "atk",
              "type": "uint32"
            },
            {
              "internalType": "uint32",
              "name": "def",
              "type": "uint32"
            },
            {
              "internalType": "uint32",
              "name": "inte",
              "type": "uint32"
            },
            {
              "internalType": "uint32",
              "name": "mgr",
              "type": "uint32"
            },
            {
              "internalType": "uint32",
              "name": "agl",
              "type": "uint32"
            },
            {
              "internalType": "uint16",
              "name": "maxSkills",
              "type": "uint16"
            },
            {
              "internalType": "uint16",
              "name": "maxSkillsSet",
              "type": "uint16"
            }
          ],
          "internalType": "struct IPromptMonsters.Monster",
          "name": "monster_",
          "type": "tuple"
        }
      ],
      "name": "mintOnlyOwner",
      "outputs": [],
      "stateMutability": "nonpayable",
      "type": "function"
    },
    {
      "inputs": [],
      "name": "name",
      "outputs": [
        {
          "internalType": "string",
          "name": "",
          "type": "string"
        }
      ],
      "stateMutability": "view",
      "type": "function"
    },
    {
      "inputs": [],
      "name": "owner",
      "outputs": [
        {
          "internalType": "address",
          "name": "",
          "type": "address"
        }
      ],
      "stateMutability": "view",
      "type": "function"
    },
    {
      "inputs": [
        {
          "internalType": "uint256",
          "name": "tokenId",
          "type": "uint256"
        }
      ],
      "name": "ownerOf",
      "outputs": [
        {
          "internalType": "address",
          "name": "",
          "type": "address"
        }
      ],
      "stateMutability": "view",
      "type": "function"
    },
    {
      "inputs": [],
      "name": "proxiableUUID",
      "outputs": [
        {
          "internalType": "bytes32",
          "name": "",
          "type": "bytes32"
        }
      ],
      "stateMutability": "view",
      "type": "function"
    },
    {
      "inputs": [],
      "name": "renounceOwnership",
      "outputs": [],
      "stateMutability": "nonpayable",
      "type": "function"
    },
    {
      "inputs": [
        {
          "internalType": "address",
          "name": "from",
          "type": "address"
        },
        {
          "internalType": "address",
          "name": "to",
          "type": "address"
        },
        {
          "internalType": "uint256",
          "name": "tokenId",
          "type": "uint256"
        }
      ],
      "name": "safeTransferFrom",
      "outputs": [],
      "stateMutability": "nonpayable",
      "type": "function"
    },
    {
      "inputs": [
        {
          "internalType": "address",
          "name": "from",
          "type": "address"
        },
        {
          "internalType": "address",
          "name": "to",
          "type": "address"
        },
        {
          "internalType": "uint256",
          "name": "tokenId",
          "type": "uint256"
        },
        {
          "internalType": "bytes",
          "name": "data",
          "type": "bytes"
        }
      ],
      "name": "safeTransferFrom",
      "outputs": [],
      "stateMutability": "nonpayable",
      "type": "function"
    },
    {
      "inputs": [
        {
          "internalType": "address",
          "name": "operator",
          "type": "address"
        },
        {
          "internalType": "bool",
          "name": "approved",
          "type": "bool"
        }
      ],
      "name": "setApprovalForAll",
      "outputs": [],
      "stateMutability": "nonpayable",
      "type": "function"
    },
    {
      "inputs": [
        {
          "internalType": "string",
          "name": "newState_",
          "type": "string"
        }
      ],
      "name": "setExternalLink",
      "outputs": [],
      "stateMutability": "nonpayable",
      "type": "function"
    },
    {
      "inputs": [
        {
          "internalType": "bytes4",
          "name": "interfaceId",
          "type": "bytes4"
        }
      ],
      "name": "supportsInterface",
      "outputs": [
        {
          "internalType": "bool",
          "name": "",
          "type": "bool"
        }
      ],
      "stateMutability": "view",
      "type": "function"
    },
    {
      "inputs": [],
      "name": "symbol",
      "outputs": [
        {
          "internalType": "string",
          "name": "",
          "type": "string"
        }
      ],
      "stateMutability": "view",
      "type": "function"
    },
    {
      "inputs": [
        {
          "internalType": "uint256",
          "name": "tokenId_",
          "type": "uint256"
        }
      ],
      "name": "tokenURI",
      "outputs": [
        {
          "internalType": "string",
          "name": "uri",
          "type": "string"
        }
      ],
      "stateMutability": "view",
      "type": "function"
    },
    {
      "inputs": [
        {
          "internalType": "address",
          "name": "from",
          "type": "address"
        },
        {
          "internalType": "address",
          "name": "to",
          "type": "address"
        },
        {
          "internalType": "uint256",
          "name": "tokenId",
          "type": "uint256"
        }
      ],
      "name": "transferFrom",
      "outputs": [],
      "stateMutability": "nonpayable",
      "type": "function"
    },
    {
      "inputs": [
        {
          "internalType": "address",
          "name": "newOwner",
          "type": "address"
        }
      ],
      "name": "transferOwnership",
      "outputs": [],
      "stateMutability": "nonpayable",
      "type": "function"
    },
    {
      "inputs": [
        {
          "internalType": "address",
          "name": "newImplementation",
          "type": "address"
        }
      ],
      "name": "upgradeTo",
      "outputs": [],
      "stateMutability": "nonpayable",
      "type": "function"
    },
    {
      "inputs": [
        {
          "internalType": "address",
          "name": "newImplementation",
          "type": "address"
        },
        {
          "internalType": "bytes",
          "name": "data",
          "type": "bytes"
        }
      ],
      "name": "upgradeToAndCall",
      "outputs": [],
      "stateMutability": "payable",
      "type": "function"
    }
  ],
  "bytecode": "0x60a0604052306080523480156200001557600080fd5b506200002062000026565b620000e8565b600054610100900460ff1615620000935760405162461bcd60e51b815260206004820152602760248201527f496e697469616c697a61626c653a20636f6e747261637420697320696e697469604482015266616c697a696e6760c81b606482015260840160405180910390fd5b60005460ff9081161015620000e6576000805460ff191660ff9081179091556040519081527f7f26b83ff96e1f2b6a682f133852f6798a09c465da95921460cefb38474024989060200160405180910390a15b565b6080516145bd62000120600039600081816108270152818161086701528181610b0701528181610b470152610bd601526145bd6000f3fe6080604052600436106101815760003560e01c806370a08231116100d1578063b5f8795b1161008a578063e8a3d48511610064578063e8a3d48514610462578063e985e9c514610477578063f2fde38b14610497578063f62d1888146104b757600080fd5b8063b5f8795b14610402578063b88d4fde14610422578063c87b56dd1461044257600080fd5b806370a082311461034d578063715018a61461036d5780638da5cb5b1461038257806395d89b41146103a0578063a22cb465146103b5578063b2664c2e146103d557600080fd5b80633659cfe61161013e57806342966c681161011857806342966c68146102d75780634f1ef286146102f757806352d1902d1461030a5780636352211e1461032d57600080fd5b80633659cfe61461027757806337b73f1a1461029757806342842e0e146102b757600080fd5b806301ffc9a71461018657806306fdde03146101bb578063081812fc146101dd578063095ea7b3146102155780631f9179211461023757806323b872dd14610257575b600080fd5b34801561019257600080fd5b506101a66101a1366004613083565b6104d7565b60405190151581526020015b60405180910390f35b3480156101c757600080fd5b506101d0610529565b6040516101b291906130f0565b3480156101e957600080fd5b506101fd6101f8366004613103565b6105bb565b6040516001600160a01b0390911681526020016101b2565b34801561022157600080fd5b50610235610230366004613138565b6105e2565b005b34801561024357600080fd5b50610235610252366004613240565b6106fc565b34801561026357600080fd5b50610235610272366004613274565b6107ec565b34801561028357600080fd5b506102356102923660046132b0565b61081d565b3480156102a357600080fd5b506102356102b23660046134d4565b6108fc565b3480156102c357600080fd5b506102356102d2366004613274565b610ab9565b3480156102e357600080fd5b506102356102f2366004613103565b610ad4565b610235610305366004613521565b610afd565b34801561031657600080fd5b5061031f610bc9565b6040519081526020016101b2565b34801561033957600080fd5b506101fd610348366004613103565b610c7c565b34801561035957600080fd5b5061031f6103683660046132b0565b610cdc565b34801561037957600080fd5b50610235610d62565b34801561038e57600080fd5b506097546001600160a01b03166101fd565b3480156103ac57600080fd5b506101d0610d76565b3480156103c157600080fd5b506102356103d0366004613564565b610d85565b3480156103e157600080fd5b506103f56103f03660046135a0565b610d90565b6040516101b29190613685565b34801561040e57600080fd5b5061023561041d3660046137b2565b6111a0565b34801561042e57600080fd5b5061023561043d3660046137e6565b611351565b34801561044e57600080fd5b506101d061045d366004613103565b611389565b34801561046e57600080fd5b506101d06116d1565b34801561048357600080fd5b506101a661049236600461384d565b611757565b3480156104a357600080fd5b506102356104b23660046132b0565b611785565b3480156104c357600080fd5b506102356104d2366004613240565b6117fb565b60006001600160e01b031982166380ac58cd60e01b148061050857506001600160e01b03198216635b5e139f60e01b145b8061052357506301ffc9a760e01b6001600160e01b03198316145b92915050565b60606065805461053890613880565b80601f016020809104026020016040519081016040528092919081815260200182805461056490613880565b80156105b15780601f10610586576101008083540402835291602001916105b1565b820191906000526020600020905b81548152906001019060200180831161059457829003601f168201915b5050505050905090565b60006105c682611976565b506000908152606960205260409020546001600160a01b031690565b60006105ed82610c7c565b9050806001600160a01b0316836001600160a01b03160361065f5760405162461bcd60e51b815260206004820152602160248201527f4552433732313a20617070726f76616c20746f2063757272656e74206f776e656044820152603960f91b60648201526084015b60405180910390fd5b336001600160a01b038216148061067b575061067b8133611757565b6106ed5760405162461bcd60e51b815260206004820152603d60248201527f4552433732313a20617070726f76652063616c6c6572206973206e6f7420746f60448201527f6b656e206f776e6572206f7220617070726f76656420666f7220616c6c0000006064820152608401610656565b6106f783836119d5565b505050565b610704611a43565b6000610162805461071490613880565b80601f016020809104026020016040519081016040528092919081815260200182805461074090613880565b801561078d5780601f106107625761010080835404028352916020019161078d565b820191906000526020600020905b81548152906001019060200180831161077057829003601f168201915b505050505090508161016290816107a49190613908565b50336001600160a01b03167ffceab947acbd3281d41fa085ba6d9503467fabd9e3d96e3ee0dbf6f8b04a9ca482846040516107e09291906139c7565b60405180910390a25050565b6107f63382611a9d565b6108125760405162461bcd60e51b8152600401610656906139ec565b6106f7838383611afc565b6001600160a01b037f00000000000000000000000000000000000000000000000000000000000000001630036108655760405162461bcd60e51b815260040161065690613a39565b7f00000000000000000000000000000000000000000000000000000000000000006001600160a01b03166108ae600080516020614501833981519152546001600160a01b031690565b6001600160a01b0316146108d45760405162461bcd60e51b815260040161065690613a85565b6108dd81611c6d565b604080516000808252602082019092526108f991839190611c75565b50565b610904611a43565b61090c611de0565b61015f805460018101825560009190915281518290600483027f8c9815a58669fc89297bdc7dd447c098116f98e79093735c0992d0967b696ed9019081906109549082613908565b50602082015160018201906109699082613908565b5060408201518051610985916002840191602090910190612fb0565b5060608201516003919091018054608084015160a085015160c086015160e08701516101008801516101208901516101408a0151610160909a015163ffffffff998a1667ffffffffffffffff1990981697909717640100000000968a16969096029590951767ffffffffffffffff60401b1916600160401b9489169490940263ffffffff60601b191693909317600160601b928816929092029190911767ffffffffffffffff60801b1916600160801b9187169190910263ffffffff60a01b191617600160a01b918616919091021765ffffffffffff60c01b1916600160c01b949091169390930261ffff60e01b191692909217600160e01b61ffff94851602176001600160f01b0316600160f01b9390921692909202179055610aa98382611e3b565b50610ab5600161012d55565b5050565b6106f783838360405180602001604052806000815250611351565b610adc611de0565b610af2336097546001600160a01b031683610ab9565b6108f9600161012d55565b6001600160a01b037f0000000000000000000000000000000000000000000000000000000000000000163003610b455760405162461bcd60e51b815260040161065690613a39565b7f00000000000000000000000000000000000000000000000000000000000000006001600160a01b0316610b8e600080516020614501833981519152546001600160a01b031690565b6001600160a01b031614610bb45760405162461bcd60e51b815260040161065690613a85565b610bbd82611c6d565b610ab582826001611c75565b6000306001600160a01b037f00000000000000000000000000000000000000000000000000000000000000001614610c695760405162461bcd60e51b815260206004820152603860248201527f555550535570677261646561626c653a206d757374206e6f742062652063616c60448201527f6c6564207468726f7567682064656c656761746563616c6c00000000000000006064820152608401610656565b5060008051602061450183398151915290565b6000818152606760205260408120546001600160a01b0316806105235760405162461bcd60e51b8152602060048201526018602482015277115490cdcc8c4e881a5b9d985b1a59081d1bdad95b88125160421b6044820152606401610656565b60006001600160a01b038216610d465760405162461bcd60e51b815260206004820152602960248201527f4552433732313a2061646472657373207a65726f206973206e6f7420612076616044820152683634b21037bbb732b960b91b6064820152608401610656565b506001600160a01b031660009081526068602052604090205490565b610d6a611a43565b610d746000611e5d565b565b60606066805461053890613880565b610ab5338383611eaf565b60606000825190508151811115610dfd5760405162461bcd60e51b815260206004820152602b60248201527f50726f6d70744d6f6e73746572733a20746f6b656e4964734c656e677468206960448201526a7320746f6f206c6172676560a81b6064820152608401610656565b806001600160401b03811115610e1557610e15613162565b604051908082528060200260200182016040528015610ea557816020015b60408051610180810182526060808252602080830182905292820181905260009082018190526080820181905260a0820181905260c0820181905260e082018190526101008201819052610120820181905261014082018190526101608201528252600019909201910181610e335790505b50915060005b818110156111995761015f8181548110610ec757610ec7613ad1565b906000526020600020906004020160405180610180016040529081600082018054610ef190613880565b80601f0160208091040260200160405190810160405280929190818152602001828054610f1d90613880565b8015610f6a5780601f10610f3f57610100808354040283529160200191610f6a565b820191906000526020600020905b815481529060010190602001808311610f4d57829003601f168201915b50505050508152602001600182018054610f8390613880565b80601f0160208091040260200160405190810160405280929190818152602001828054610faf90613880565b8015610ffc5780601f10610fd157610100808354040283529160200191610ffc565b820191906000526020600020905b815481529060010190602001808311610fdf57829003601f168201915b5050505050815260200160028201805480602002602001604051908101604052809291908181526020016000905b828210156110d657838290600052602060002001805461104990613880565b80601f016020809104026020016040519081016040528092919081815260200182805461107590613880565b80156110c25780601f10611097576101008083540402835291602001916110c2565b820191906000526020600020905b8154815290600101906020018083116110a557829003601f168201915b50505050508152602001906001019061102a565b505050908252506003919091015463ffffffff8082166020840152640100000000820481166040840152600160401b820481166060840152600160601b820481166080840152600160801b8204811660a0840152600160a01b8204811660c0840152600160c01b82041660e083015261ffff600160e01b82048116610100840152600160f01b9091041661012090910152835184908390811061117b5761117b613ad1565b6020026020010181905250808061119190613afd565b915050610eab565b5050919050565b6111a8611de0565b61015f805460018101825560009190915281518290600483027f8c9815a58669fc89297bdc7dd447c098116f98e79093735c0992d0967b696ed9019081906111f09082613908565b50602082015160018201906112059082613908565b5060408201518051611221916002840191602090910190612fb0565b5060608201516003919091018054608084015160a085015160c086015160e08701516101008801516101208901516101408a0151610160909a015163ffffffff998a1667ffffffffffffffff1990981697909717640100000000968a16969096029590951767ffffffffffffffff60401b1916600160401b9489169490940263ffffffff60601b191693909317600160601b928816929092029190911767ffffffffffffffff60801b1916600160801b9187169190910263ffffffff60a01b191617600160a01b918616919091021765ffffffffffff60c01b1916600160c01b949091169390930261ffff60e01b191692909217600160e01b61ffff94851602176001600160f01b0316600160f01b93909216929092021790556113453382611e3b565b506108f9600161012d55565b61135b3383611a9d565b6113775760405162461bcd60e51b8152600401610656906139ec565b61138384848484611f7d565b50505050565b606061139482611976565b600061139f83611fb0565b9050600061015f84815481106113b7576113b7613ad1565b9060005260206000209060040201604051806101800160405290816000820180546113e190613880565b80601f016020809104026020016040519081016040528092919081815260200182805461140d90613880565b801561145a5780601f1061142f5761010080835404028352916020019161145a565b820191906000526020600020905b81548152906001019060200180831161143d57829003601f168201915b5050505050815260200160018201805461147390613880565b80601f016020809104026020016040519081016040528092919081815260200182805461149f90613880565b80156114ec5780601f106114c1576101008083540402835291602001916114ec565b820191906000526020600020905b8154815290600101906020018083116114cf57829003601f168201915b5050505050815260200160028201805480602002602001604051908101604052809291908181526020016000905b828210156115c657838290600052602060002001805461153990613880565b80601f016020809104026020016040519081016040528092919081815260200182805461156590613880565b80156115b25780601f10611587576101008083540402835291602001916115b2565b820191906000526020600020905b81548152906001019060200180831161159557829003601f168201915b50505050508152602001906001019061151a565b505050908252506003919091015463ffffffff808216602080850191909152640100000000830482166040850152600160401b830482166060850152600160601b830482166080850152600160801b8304821660a0850152600160a01b8304821660c0850152600160c01b830490911660e084015261ffff600160e01b83048116610100850152600160f01b909204909116610120909201919091528151908201519192506000916116a2919061167c866124c9565b60405160200161168e93929190613b32565b6040516020818303038152906040526124c9565b90506000816040516020016116b79190613bf5565b60408051601f198184030181529190529695505050505050565b606060006116dd610529565b90506000816040516020016116f29190613c3a565b604051602081830303815290604052905060006117298384611713856124c9565b61016260405160200161168e9493929190613de7565b905060008160405160200161173e9190613bf5565b60408051601f1981840301815291905295945050505050565b6001600160a01b039182166000908152606a6020908152604080832093909416825291909152205460ff1690565b61178d611a43565b6001600160a01b0381166117f25760405162461bcd60e51b815260206004820152602660248201527f4f776e61626c653a206e6577206f776e657220697320746865207a65726f206160448201526564647265737360d01b6064820152608401610656565b6108f981611e5d565b600054610100900460ff161580801561181b5750600054600160ff909116105b806118355750303b158015611835575060005460ff166001145b6118985760405162461bcd60e51b815260206004820152602e60248201527f496e697469616c697a61626c653a20636f6e747261637420697320616c72656160448201526d191e481a5b9a5d1a585b1a5e995960921b6064820152608401610656565b6000805460ff1916600117905580156118bb576000805461ff0019166101001790555b6119076040518060400160405280600f81526020016e50726f6d7074204d6f6e737465727360881b8152506040518060400160405280600381526020016226a7a760e91b81525061261b565b61190f61264c565b61191761267b565b61191f6126a2565b61016261192c8382613908565b508015610ab5576000805461ff0019169055604051600181527f7f26b83ff96e1f2b6a682f133852f6798a09c465da95921460cefb38474024989060200160405180910390a15050565b6000818152606760205260409020546001600160a01b03166108f95760405162461bcd60e51b8152602060048201526018602482015277115490cdcc8c4e881a5b9d985b1a59081d1bdad95b88125160421b6044820152606401610656565b600081815260696020526040902080546001600160a01b0319166001600160a01b0384169081179091558190611a0a82610c7c565b6001600160a01b03167f8c5be1e5ebec7d5bd14f71427d1e84f3dd0314c0f7b2291e5b200ac8c7c3b92560405160405180910390a45050565b6097546001600160a01b03163314610d745760405162461bcd60e51b815260206004820181905260248201527f4f776e61626c653a2063616c6c6572206973206e6f7420746865206f776e65726044820152606401610656565b600080611aa983610c7c565b9050806001600160a01b0316846001600160a01b03161480611ad05750611ad08185611757565b80611af45750836001600160a01b0316611ae9846105bb565b6001600160a01b0316145b949350505050565b826001600160a01b0316611b0f82610c7c565b6001600160a01b031614611b355760405162461bcd60e51b815260040161065690613f54565b6001600160a01b038216611b975760405162461bcd60e51b8152602060048201526024808201527f4552433732313a207472616e7366657220746f20746865207a65726f206164646044820152637265737360e01b6064820152608401610656565b611ba483838360016126d1565b826001600160a01b0316611bb782610c7c565b6001600160a01b031614611bdd5760405162461bcd60e51b815260040161065690613f54565b600081815260696020908152604080832080546001600160a01b03199081169091556001600160a01b0387811680865260688552838620805460001901905590871680865283862080546001019055868652606790945282852080549092168417909155905184937fddf252ad1be2c89b69c2b068fc378daa952ba7f163c4a11628f55a4df523b3ef91a4505050565b6108f9611a43565b7f4910fdfa16fed3260ed0e7147f7cc6da11a60208b5b9406d12a635614ffd91435460ff1615611ca8576106f78361271a565b826001600160a01b03166352d1902d6040518163ffffffff1660e01b8152600401602060405180830381865afa925050508015611d02575060408051601f3d908101601f19168201909252611cff91810190613f99565b60015b611d655760405162461bcd60e51b815260206004820152602e60248201527f45524331393637557067726164653a206e657720696d706c656d656e7461746960448201526d6f6e206973206e6f74205555505360901b6064820152608401610656565b6000805160206145018339815191528114611dd45760405162461bcd60e51b815260206004820152602960248201527f45524331393637557067726164653a20756e737570706f727465642070726f786044820152681a58589b195555525160ba1b6064820152608401610656565b506106f78383836127b6565b600261012d5403611e335760405162461bcd60e51b815260206004820152601f60248201527f5265656e7472616e637947756172643a207265656e7472616e742063616c6c006044820152606401610656565b600261012d55565b610ab58282604051806020016040528060008152506127db565b600161012d55565b609780546001600160a01b038381166001600160a01b0319831681179093556040519116919082907f8be0079c531659141344cd1fd0a4f28419497f9722a3daafe3b4186f6b6457e090600090a35050565b816001600160a01b0316836001600160a01b031603611f105760405162461bcd60e51b815260206004820152601960248201527f4552433732313a20617070726f766520746f2063616c6c6572000000000000006044820152606401610656565b6001600160a01b038381166000818152606a6020908152604080832094871680845294825291829020805460ff191686151590811790915591519182527f17307eab39ab6107e8899845ad3d59bd9653f200f220920489ca2b5937696c31910160405180910390a3505050565b611f88848484611afc565b611f948484848461280e565b6113835760405162461bcd60e51b815260040161065690613fb2565b6060600061015f8381548110611fc857611fc8613ad1565b906000526020600020906004020160405180610180016040529081600082018054611ff290613880565b80601f016020809104026020016040519081016040528092919081815260200182805461201e90613880565b801561206b5780601f106120405761010080835404028352916020019161206b565b820191906000526020600020905b81548152906001019060200180831161204e57829003601f168201915b5050505050815260200160018201805461208490613880565b80601f01602080910402602001604051908101604052809291908181526020018280546120b090613880565b80156120fd5780601f106120d2576101008083540402835291602001916120fd565b820191906000526020600020905b8154815290600101906020018083116120e057829003601f168201915b5050505050815260200160028201805480602002602001604051908101604052809291908181526020016000905b828210156121d757838290600052602060002001805461214a90613880565b80601f016020809104026020016040519081016040528092919081815260200182805461217690613880565b80156121c35780601f10612198576101008083540402835291602001916121c3565b820191906000526020600020905b8154815290600101906020018083116121a657829003601f168201915b50505050508152602001906001019061212b565b505050908252506003919091015463ffffffff8082166020840152640100000000820481166040840152600160401b820481166060840152600160601b820481166080840152600160801b8204811660a0840152600160a01b8204811660c0840152600160c01b82041660e083015261ffff600160e01b82048116610100840152600160f01b9091041661012090910152805190915061227c90600a9060149061290f565b6122ba600a603c612296856060015163ffffffff1661294e565b6040516020016122a69190614004565b60405160208183030381529060405261290f565b6122e4600a60646122d4866080015163ffffffff1661294e565b6040516020016122a69190614030565b61230e600a60786122fe8760a0015163ffffffff1661294e565b6040516020016122a6919061404f565b612338600a608c6123288860c0015163ffffffff1661294e565b6040516020016122a6919061407c565b612362600a60a06123528960e0015163ffffffff1661294e565b6040516020016122a6919061409c565b61238d600a60b461237d8a610100015163ffffffff1661294e565b6040516020016122a691906140bc565b6123b8600a60c86123a88b610120015163ffffffff1661294e565b6040516020016122a691906140dc565b6040516020016123cf9897969594939291906140fc565b60408051601f19818403018152919052915060f060005b82604001515181101561249f5761016083015161ffff16612408826001614288565b1161249f578361246a600a61241e84601461429b565b6124289086614288565b61243b612436866001614288565b61294e565b8760400151868151811061245157612451613ad1565b60200260200101516040516020016122a69291906142b2565b60405160200161247b929190614300565b6040516020818303038152906040529350808061249790613afd565b9150506123e6565b50826040516020016124b1919061432f565b60405160208183030381529060405292505050919050565b606081516000036124e857505060408051602081019091526000815290565b600060405180606001604052806040815260200161452160409139905060006003845160026125179190614288565b6125219190614359565b61252c90600461429b565b6001600160401b0381111561254357612543613162565b6040519080825280601f01601f19166020018201604052801561256d576020820181803683370190505b509050600182016020820185865187015b808210156125d9576003820191508151603f8160121c168501518453600184019350603f81600c1c168501518453600184019350603f8160061c168501518453600184019350603f811685015184535060018301925061257e565b50506003865106600181146125f5576002811461260857612610565b603d6001830353603d6002830353612610565b603d60018303535b509195945050505050565b600054610100900460ff166126425760405162461bcd60e51b81526004016106569061437b565b610ab582826129e0565b600054610100900460ff166126735760405162461bcd60e51b81526004016106569061437b565b610d74612a20565b600054610100900460ff16610d745760405162461bcd60e51b81526004016106569061437b565b600054610100900460ff166126c95760405162461bcd60e51b81526004016106569061437b565b610d74612a50565b6001600160a01b0384166126ee576126e98383612a77565b611383565b6001600160a01b038316612706576126e98483612abc565b6127108483612abc565b6126e98383612a77565b6001600160a01b0381163b6127875760405162461bcd60e51b815260206004820152602d60248201527f455243313936373a206e657720696d706c656d656e746174696f6e206973206e60448201526c1bdd08184818dbdb9d1c9858dd609a1b6064820152608401610656565b60008051602061450183398151915280546001600160a01b0319166001600160a01b0392909216919091179055565b6127bf83612bc1565b6000825111806127cc5750805b156106f7576113838383612c01565b6127e58383612cf5565b6127f2600084848461280e565b6106f75760405162461bcd60e51b815260040161065690613fb2565b60006001600160a01b0384163b1561290457604051630a85bd0160e11b81526001600160a01b0385169063150b7a02906128529033908990889088906004016143c6565b6020604051808303816000875af192505050801561288d575060408051601f3d908101601f1916820190925261288a91810190614403565b60015b6128ea573d8080156128bb576040519150601f19603f3d011682016040523d82523d6000602084013e6128c0565b606091505b5080516000036128e25760405162461bcd60e51b815260040161065690613fb2565b805181602001fd5b6001600160e01b031916630a85bd0160e11b149050611af4565b506001949350505050565b606061291a8461294e565b6129238461294e565b8360405160200161293693929190614420565b60405160208183030381529060405290509392505050565b6060600061295b83612e8e565b60010190506000816001600160401b0381111561297a5761297a613162565b6040519080825280601f01601f1916602001820160405280156129a4576020820181803683370190505b5090508181016020015b600019016f181899199a1a9b1b9c1cb0b131b232b360811b600a86061a8153600a85049450846129ae57509392505050565b600054610100900460ff16612a075760405162461bcd60e51b81526004016106569061437b565b6065612a138382613908565b5060666106f78282613908565b600054610100900460ff16612a475760405162461bcd60e51b81526004016106569061437b565b610d7433611e5d565b600054610100900460ff16611e555760405162461bcd60e51b81526004016106569061437b565b6001600160a01b039091166000908152610160602081815260408084208054610161845282862087875284529185208290559282526001810183559183529091200155565b6001600160a01b0382166000908152610160602052604081208054612ae3906001906144bb565b81548110612af357612af3613ad1565b90600052602060002001549050808214612b5a576001600160a01b0383166000818152610161602090815260408083208684528252808320549383526101609091529020805483919083908110612b4c57612b4c613ad1565b600091825260209091200155505b6001600160a01b038316600090815261016060205260409020805480612b8257612b826144ce565b6000828152602080822083016000199081018390559092019092556001600160a01b039094168152610161845260408082209382529290935250812055565b612bca8161271a565b6040516001600160a01b038216907fbc7cd75a20ee27fd9adebab32041f755214dbc6bffa90cc0225b39da2e5c2d3b90600090a250565b60606001600160a01b0383163b612c695760405162461bcd60e51b815260206004820152602660248201527f416464726573733a2064656c65676174652063616c6c20746f206e6f6e2d636f6044820152651b9d1c9858dd60d21b6064820152608401610656565b600080846001600160a01b031684604051612c8491906144e4565b600060405180830381855af49150503d8060008114612cbf576040519150601f19603f3d011682016040523d82523d6000602084013e612cc4565b606091505b5091509150612cec828260405180606001604052806027815260200161456160279139612f66565b95945050505050565b6001600160a01b038216612d4b5760405162461bcd60e51b815260206004820181905260248201527f4552433732313a206d696e7420746f20746865207a65726f20616464726573736044820152606401610656565b6000818152606760205260409020546001600160a01b031615612db05760405162461bcd60e51b815260206004820152601c60248201527f4552433732313a20746f6b656e20616c7265616479206d696e746564000000006044820152606401610656565b612dbe6000838360016126d1565b6000818152606760205260409020546001600160a01b031615612e235760405162461bcd60e51b815260206004820152601c60248201527f4552433732313a20746f6b656e20616c7265616479206d696e746564000000006044820152606401610656565b6001600160a01b038216600081815260686020908152604080832080546001019055848352606790915280822080546001600160a01b0319168417905551839291907fddf252ad1be2c89b69c2b068fc378daa952ba7f163c4a11628f55a4df523b3ef908290a45050565b60008072184f03e93ff9f4daa797ed6e38ed64bf6a1f0160401b8310612ecd5772184f03e93ff9f4daa797ed6e38ed64bf6a1f0160401b830492506040015b6d04ee2d6d415b85acef81000000008310612ef9576d04ee2d6d415b85acef8100000000830492506020015b662386f26fc100008310612f1757662386f26fc10000830492506010015b6305f5e1008310612f2f576305f5e100830492506008015b6127108310612f4357612710830492506004015b60648310612f55576064830492506002015b600a83106105235760010192915050565b60608315612f75575081612f7f565b612f7f8383612f86565b9392505050565b815115612f965781518083602001fd5b8060405162461bcd60e51b815260040161065691906130f0565b828054828255906000526020600020908101928215612ff6579160200282015b82811115612ff65782518290612fe69082613908565b5091602001919060010190612fd0565b50613002929150613006565b5090565b8082111561300257600061301a8282613023565b50600101613006565b50805461302f90613880565b6000825580601f1061303f575050565b601f0160209004906000526020600020908101906108f991905b808211156130025760008155600101613059565b6001600160e01b0319811681146108f957600080fd5b60006020828403121561309557600080fd5b8135612f7f8161306d565b60005b838110156130bb5781810151838201526020016130a3565b50506000910152565b600081518084526130dc8160208601602086016130a0565b601f01601f19169290920160200192915050565b602081526000612f7f60208301846130c4565b60006020828403121561311557600080fd5b5035919050565b80356001600160a01b038116811461313357600080fd5b919050565b6000806040838503121561314b57600080fd5b6131548361311c565b946020939093013593505050565b634e487b7160e01b600052604160045260246000fd5b60405161018081016001600160401b038111828210171561319b5761319b613162565b60405290565b604051601f8201601f191681016001600160401b03811182821017156131c9576131c9613162565b604052919050565b600082601f8301126131e257600080fd5b81356001600160401b038111156131fb576131fb613162565b61320e601f8201601f19166020016131a1565b81815284602083860101111561322357600080fd5b816020850160208301376000918101602001919091529392505050565b60006020828403121561325257600080fd5b81356001600160401b0381111561326857600080fd5b611af4848285016131d1565b60008060006060848603121561328957600080fd5b6132928461311c565b92506132a06020850161311c565b9150604084013590509250925092565b6000602082840312156132c257600080fd5b612f7f8261311c565b60006001600160401b038211156132e4576132e4613162565b5060051b60200190565b600082601f8301126132ff57600080fd5b8135602061331461330f836132cb565b6131a1565b82815260059290921b8401810191818101908684111561333357600080fd5b8286015b848110156133725780356001600160401b038111156133565760008081fd5b6133648986838b01016131d1565b845250918301918301613337565b509695505050505050565b803563ffffffff8116811461313357600080fd5b803561ffff8116811461313357600080fd5b600061018082840312156133b657600080fd5b6133be613178565b905081356001600160401b03808211156133d757600080fd5b6133e3858386016131d1565b835260208401359150808211156133f957600080fd5b613405858386016131d1565b6020840152604084013591508082111561341e57600080fd5b5061342b848285016132ee565b60408301525061343d6060830161337d565b606082015261344e6080830161337d565b608082015261345f60a0830161337d565b60a082015261347060c0830161337d565b60c082015261348160e0830161337d565b60e082015261010061349481840161337d565b908201526101206134a683820161337d565b908201526101406134b8838201613391565b908201526101606134ca838201613391565b9082015292915050565b600080604083850312156134e757600080fd5b6134f08361311c565b915060208301356001600160401b0381111561350b57600080fd5b613517858286016133a3565b9150509250929050565b6000806040838503121561353457600080fd5b61353d8361311c565b915060208301356001600160401b0381111561355857600080fd5b613517858286016131d1565b6000806040838503121561357757600080fd5b6135808361311c565b91506020830135801515811461359557600080fd5b809150509250929050565b600060208083850312156135b357600080fd5b82356001600160401b038111156135c957600080fd5b8301601f810185136135da57600080fd5b80356135e861330f826132cb565b81815260059190911b8201830190838101908783111561360757600080fd5b928401925b828410156136255783358252928401929084019061360c565b979650505050505050565b600081518084526020808501808196508360051b8101915082860160005b858110156136785782840389526136668483516130c4565b9885019893509084019060010161364e565b5091979650505050505050565b60006020808301818452808551808352604092508286019150828160051b87010184880160005b838110156137a457603f19898403018552815161018081518186526136d3828701826130c4565b915050888201518582038a8701526136eb82826130c4565b91505087820151858203898701526137038282613630565b91505060608083015161371d8288018263ffffffff169052565b505060808281015163ffffffff9081169187019190915260a08084015182169087015260c08084015182169087015260e0808401518216908701526101008084015182169087015261012080840151909116908601526101408083015161ffff908116918701919091526101609283015116919094015293860193908601906001016136ac565b509098975050505050505050565b6000602082840312156137c457600080fd5b81356001600160401b038111156137da57600080fd5b611af4848285016133a3565b600080600080608085870312156137fc57600080fd5b6138058561311c565b93506138136020860161311c565b92506040850135915060608501356001600160401b0381111561383557600080fd5b613841878288016131d1565b91505092959194509250565b6000806040838503121561386057600080fd5b6138698361311c565b91506138776020840161311c565b90509250929050565b600181811c9082168061389457607f821691505b6020821081036138b457634e487b7160e01b600052602260045260246000fd5b50919050565b601f8211156106f757600081815260208120601f850160051c810160208610156138e15750805b601f850160051c820191505b81811015613900578281556001016138ed565b505050505050565b81516001600160401b0381111561392157613921613162565b6139358161392f8454613880565b846138ba565b602080601f83116001811461396a57600084156139525750858301515b600019600386901b1c1916600185901b178555613900565b600085815260208120601f198616915b828110156139995788860151825594840194600190910190840161397a565b50858210156139b75787850151600019600388901b60f8161c191681555b5050505050600190811b01905550565b6040815260006139da60408301856130c4565b8281036020840152612cec81856130c4565b6020808252602d908201527f4552433732313a2063616c6c6572206973206e6f7420746f6b656e206f776e6560408201526c1c881bdc88185c1c1c9bdd9959609a1b606082015260800190565b6020808252602c908201527f46756e6374696f6e206d7573742062652063616c6c6564207468726f7567682060408201526b19195b1959d85d1958d85b1b60a21b606082015260800190565b6020808252602c908201527f46756e6374696f6e206d7573742062652063616c6c6564207468726f7567682060408201526b6163746976652070726f787960a01b606082015260800190565b634e487b7160e01b600052603260045260246000fd5b634e487b7160e01b600052601160045260246000fd5b600060018201613b0f57613b0f613ae7565b5060010190565b60008151613b288185602086016130a0565b9290920192915050565b693d913730b6b2911d101160b11b81528351600090613b5881600a8501602089016130a0565b72111610113232b9b1b934b83a34b7b7111d101160691b600a918401918201528451613b8b81601d8401602089016130a0565b7f222c2022696d616765223a2022646174613a696d6167652f7376672b786d6c3b601d92909101918201526618985cd94d8d0b60ca1b603d8201528351613bd98160448401602088016130a0565b61227d60f01b6044929091019182015260460195945050505050565b7f646174613a6170706c69636174696f6e2f6a736f6e3b6261736536342c000000815260008251613c2d81601d8501602087016130a0565b91909101601d0192915050565b7f3c73766720786d6c6e733d27687474703a2f2f7777772e77332e6f72672f323081527f30302f73766727207072657365727665417370656374526174696f3d27784d6960208201527f6e594d696e206d656574272076696577426f783d27302030203335302033353060408201527f273e3c7374796c653e2e62617365207b2066696c6c3a2077686974653b20666f60608201527f6e742d66616d696c793a2073657269663b20666f6e742d73697a653a2032347060808201527f783b207d3c2f7374796c653e3c726563742077696474683d273130302527206860a08201527f65696768743d2731303025272066696c6c3d27626c61636b27202f3e3c74657860c08201527f7420783d273530252720793d273530252720636c6173733d276261736527206460e08201527f6f6d696e616e742d626173656c696e653d276d6964646c652720746578742d616101008201526e3731b437b91e93b6b4b2323632939f60891b610120820152600061012f8351613dbe81838601602088016130a0565b8301613ddb8282016c1e17ba32bc3a1f1e17b9bb339f60991b9052565b61013c01949350505050565b693d913730b6b2911d101160b11b815284516000906020613e0e82600a8601838b016130a0565b72111610113232b9b1b934b83a34b7b7111d101160691b600a928501928301528651613e4081601d8501848b016130a0565b7f69732047656e657261746976652041492047616d652e222c2022696d61676522601d93909101928301527f3a2022646174613a696d6167652f7376672b786d6c3b6261736536342c000000603d8301528551613ea381605a8501848a016130a0565b741116101132bc3a32b93730b62fb634b735911d101160591b605a93909101928301528454606f90600090613ed781613880565b60018281168015613eef5760018114613f0857613f38565b60ff198416888701528215158302880186019450613f38565b8a6000528660002060005b84811015613f2e5781548a8201890152908301908801613f13565b5050858389010194505b505061227d60f01b835250506002019998505050505050505050565b60208082526025908201527f4552433732313a207472616e736665722066726f6d20696e636f72726563742060408201526437bbb732b960d91b606082015260800190565b600060208284031215613fab57600080fd5b5051919050565b60208082526032908201527f4552433732313a207472616e7366657220746f206e6f6e20455243373231526560408201527131b2b4bb32b91034b6b83632b6b2b73a32b960711b606082015260800190565b630262b1d160e51b8152600082516140238160048501602087016130a0565b9190910160040192915050565b63024281d160e51b8152600082516140238160048501602087016130a0565b64020aa259d160dd1b81526000825161406f8160058501602087016130a0565b9190910160050192915050565b6402222a31d160dd1b81526000825161406f8160058501602087016130a0565b64024a72a1d160dd1b81526000825161406f8160058501602087016130a0565b64026a3a91d160dd1b81526000825161406f8160058501602087016130a0565b64020a3a61d160dd1b81526000825161406f8160058501602087016130a0565b7f3c73766720786d6c6e733d22687474703a2f2f7777772e77332e6f72672f323081527f30302f73766722207072657365727665417370656374526174696f3d22784d6960208201527f6e594d696e206d656574222076696577426f783d22302030203335302033353060408201527f223e3c7374796c653e2e62617365207b2066696c6c3a2077686974653b20666f60608201527f6e742d66616d696c793a2073657269663b20666f6e742d73697a653a2031347060808201527f783b207d3c2f7374796c653e3c726563742077696474683d223130302522206860a08201527f65696768743d2231303025222066696c6c3d22626c61636b22202f3e0000000060c0820152600089516142188160dc850160208e016130a0565b89519083019061422f8160dc840160208e016130a0565b89519101906142458160dc840160208d016130a0565b61427861427261426c61426661426060dc868801018e613b16565b8c613b16565b8a613b16565b88613b16565b86613b16565b9c9b505050505050505050505050565b8082018082111561052357610523613ae7565b808202811582820484141761052357610523613ae7565b6414dada5b1b60da1b8152600083516142d28160058501602088016130a0565b6101d160f51b60059184019182015283516142f48160078401602088016130a0565b01600701949350505050565b600083516143128184602088016130a0565b8351908301906143268183602088016130a0565b01949350505050565b600082516143418184602087016130a0565b651e17b9bb339f60d11b920191825250600601919050565b60008261437657634e487b7160e01b600052601260045260246000fd5b500490565b6020808252602b908201527f496e697469616c697a61626c653a20636f6e7472616374206973206e6f74206960408201526a6e697469616c697a696e6760a81b606082015260800190565b6001600160a01b03858116825284166020820152604081018390526080606082018190526000906143f9908301846130c4565b9695505050505050565b60006020828403121561441557600080fd5b8151612f7f8161306d565b681e3a32bc3a103c1e9160b91b815283516000906144458160098501602089016130a0565b6411103c9e9160d91b600991840191820152845161446a81600e8401602089016130a0565b6e111031b630b9b99e913130b9b2911f60891b600e9290910191820152835161449a81601d8401602088016130a0565b661e17ba32bc3a1f60c91b601d929091019182015260240195945050505050565b8181038181111561052357610523613ae7565b634e487b7160e01b600052603160045260246000fd5b600082516144f68184602087016130a0565b919091019291505056fe360894a13ba1a3210667c828492db98dca3e2076cc3735a920a3ca505d382bbc4142434445464748494a4b4c4d4e4f505152535455565758595a6162636465666768696a6b6c6d6e6f707172737475767778797a303132333435363738392b2f416464726573733a206c6f772d6c6576656c2064656c65676174652063616c6c206661696c6564a2646970667358221220d2ae48241616d7d9654ffa2e70066e5990bbaae70a6119d037a3b3639ed4b44764736f6c63430008120033",
  "linkReferences": {},
  "deployedLinkReferences": {}
}