{
  "_format": "hh-sol-artifact-1",
  "contractName": "PromptMonsters",
  "sourceName": "contracts/prompt-monsters/PromptMonsters.sol",
  "abi": [
    {
      "inputs": [],
      "stateMutability": "nonpayable",
      "type": "constructor"
    },
    {
      "anonymous": false,
      "inputs": [
        {
          "indexed": false,
          "internalType": "address",
          "name": "previousAdmin",
          "type": "address"
        },
        {
          "indexed": false,
          "internalType": "address",
          "name": "newAdmin",
          "type": "address"
        }
      ],
      "name": "AdminChanged",
      "type": "event"
    },
    {
      "anonymous": false,
      "inputs": [
        {
          "indexed": true,
          "internalType": "address",
          "name": "owner",
          "type": "address"
        },
        {
          "indexed": true,
          "internalType": "address",
          "name": "approved",
          "type": "address"
        },
        {
          "indexed": true,
          "internalType": "uint256",
          "name": "tokenId",
          "type": "uint256"
        }
      ],
      "name": "Approval",
      "type": "event"
    },
    {
      "anonymous": false,
      "inputs": [
        {
          "indexed": true,
          "internalType": "address",
          "name": "owner",
          "type": "address"
        },
        {
          "indexed": true,
          "internalType": "address",
          "name": "operator",
          "type": "address"
        },
        {
          "indexed": false,
          "internalType": "bool",
          "name": "approved",
          "type": "bool"
        }
      ],
      "name": "ApprovalForAll",
      "type": "event"
    },
    {
      "anonymous": false,
      "inputs": [
        {
          "indexed": true,
          "internalType": "address",
          "name": "beacon",
          "type": "address"
        }
      ],
      "name": "BeaconUpgraded",
      "type": "event"
    },
    {
      "anonymous": false,
      "inputs": [
        {
          "indexed": false,
          "internalType": "uint8",
          "name": "version",
          "type": "uint8"
        }
      ],
      "name": "Initialized",
      "type": "event"
    },
    {
      "anonymous": false,
      "inputs": [
        {
          "indexed": true,
          "internalType": "address",
          "name": "previousOwner",
          "type": "address"
        },
        {
          "indexed": true,
          "internalType": "address",
          "name": "newOwner",
          "type": "address"
        }
      ],
      "name": "OwnershipTransferred",
      "type": "event"
    },
    {
      "anonymous": false,
      "inputs": [
        {
          "indexed": true,
          "internalType": "address",
          "name": "publisher",
          "type": "address"
        },
        {
          "indexed": false,
          "internalType": "string",
          "name": "oldValue",
          "type": "string"
        },
        {
          "indexed": false,
          "internalType": "string",
          "name": "newValue",
          "type": "string"
        }
      ],
      "name": "SetExternalLink",
      "type": "event"
    },
    {
      "anonymous": false,
      "inputs": [
        {
          "indexed": true,
          "internalType": "address",
          "name": "from",
          "type": "address"
        },
        {
          "indexed": true,
          "internalType": "address",
          "name": "to",
          "type": "address"
        },
        {
          "indexed": true,
          "internalType": "uint256",
          "name": "tokenId",
          "type": "uint256"
        }
      ],
      "name": "Transfer",
      "type": "event"
    },
    {
      "anonymous": false,
      "inputs": [
        {
          "indexed": true,
          "internalType": "address",
          "name": "implementation",
          "type": "address"
        }
      ],
      "name": "Upgraded",
      "type": "event"
    },
    {
      "inputs": [
        {
          "internalType": "address",
          "name": "to",
          "type": "address"
        },
        {
          "internalType": "uint256",
          "name": "tokenId",
          "type": "uint256"
        }
      ],
      "name": "approve",
      "outputs": [],
      "stateMutability": "nonpayable",
      "type": "function"
    },
    {
      "inputs": [
        {
          "internalType": "address",
          "name": "owner",
          "type": "address"
        }
      ],
      "name": "balanceOf",
      "outputs": [
        {
          "internalType": "uint256",
          "name": "",
          "type": "uint256"
        }
      ],
      "stateMutability": "view",
      "type": "function"
    },
    {
      "inputs": [
        {
          "internalType": "uint256",
          "name": "tokenId_",
          "type": "uint256"
        }
      ],
      "name": "burn",
      "outputs": [],
      "stateMutability": "nonpayable",
      "type": "function"
    },
    {
      "inputs": [],
      "name": "contractURI",
      "outputs": [
        {
          "internalType": "string",
          "name": "uri",
          "type": "string"
        }
      ],
      "stateMutability": "view",
      "type": "function"
    },
    {
      "inputs": [
        {
          "internalType": "uint256",
          "name": "tokenId",
          "type": "uint256"
        }
      ],
      "name": "getApproved",
      "outputs": [
        {
          "internalType": "address",
          "name": "",
          "type": "address"
        }
      ],
      "stateMutability": "view",
      "type": "function"
    },
    {
      "inputs": [
        {
          "internalType": "uint256[]",
          "name": "tokenIds_",
          "type": "uint256[]"
        }
      ],
      "name": "getMonsters",
      "outputs": [
        {
          "components": [
            {
              "internalType": "string",
              "name": "name",
              "type": "string"
            },
            {
              "internalType": "string",
              "name": "flavor",
              "type": "string"
            },
            {
              "internalType": "string[]",
              "name": "skills",
              "type": "string[]"
            },
            {
              "internalType": "uint32",
              "name": "lv",
              "type": "uint32"
            },
            {
              "internalType": "uint32",
              "name": "hp",
              "type": "uint32"
            },
            {
              "internalType": "uint32",
              "name": "atk",
              "type": "uint32"
            },
            {
              "internalType": "uint32",
              "name": "def",
              "type": "uint32"
            },
            {
              "internalType": "uint32",
              "name": "inte",
              "type": "uint32"
            },
            {
              "internalType": "uint32",
              "name": "mgr",
              "type": "uint32"
            },
            {
              "internalType": "uint32",
              "name": "agl",
              "type": "uint32"
            },
            {
              "internalType": "uint16",
              "name": "maxSkills",
              "type": "uint16"
            },
            {
              "internalType": "uint16",
              "name": "maxSkillsSet",
              "type": "uint16"
            }
          ],
          "internalType": "struct IPromptMonsters.Monster[]",
          "name": "monsters",
          "type": "tuple[]"
        }
      ],
      "stateMutability": "view",
      "type": "function"
    },
    {
      "inputs": [],
      "name": "getMonstersTotalSupply",
      "outputs": [
        {
          "internalType": "uint256",
          "name": "totalSupply",
          "type": "uint256"
        }
      ],
      "stateMutability": "view",
      "type": "function"
    },
    {
      "inputs": [
        {
          "internalType": "address",
          "name": "owner",
          "type": "address"
        }
      ],
      "name": "getOwnerToTokenIds",
      "outputs": [
        {
          "internalType": "uint256[]",
          "name": "tokenIds",
          "type": "uint256[]"
        }
      ],
      "stateMutability": "view",
      "type": "function"
    },
    {
      "inputs": [
        {
          "internalType": "string",
          "name": "externalLink_",
          "type": "string"
        }
      ],
      "name": "initialize",
      "outputs": [],
      "stateMutability": "nonpayable",
      "type": "function"
    },
    {
      "inputs": [
        {
          "internalType": "address",
          "name": "owner",
          "type": "address"
        },
        {
          "internalType": "address",
          "name": "operator",
          "type": "address"
        }
      ],
      "name": "isApprovedForAll",
      "outputs": [
        {
          "internalType": "bool",
          "name": "",
          "type": "bool"
        }
      ],
      "stateMutability": "view",
      "type": "function"
    },
    {
      "inputs": [
        {
          "components": [
            {
              "internalType": "string",
              "name": "name",
              "type": "string"
            },
            {
              "internalType": "string",
              "name": "flavor",
              "type": "string"
            },
            {
              "internalType": "string[]",
              "name": "skills",
              "type": "string[]"
            },
            {
              "internalType": "uint32",
              "name": "lv",
              "type": "uint32"
            },
            {
              "internalType": "uint32",
              "name": "hp",
              "type": "uint32"
            },
            {
              "internalType": "uint32",
              "name": "atk",
              "type": "uint32"
            },
            {
              "internalType": "uint32",
              "name": "def",
              "type": "uint32"
            },
            {
              "internalType": "uint32",
              "name": "inte",
              "type": "uint32"
            },
            {
              "internalType": "uint32",
              "name": "mgr",
              "type": "uint32"
            },
            {
              "internalType": "uint32",
              "name": "agl",
              "type": "uint32"
            },
            {
              "internalType": "uint16",
              "name": "maxSkills",
              "type": "uint16"
            },
            {
              "internalType": "uint16",
              "name": "maxSkillsSet",
              "type": "uint16"
            }
          ],
          "internalType": "struct IPromptMonsters.Monster",
          "name": "monster_",
          "type": "tuple"
        }
      ],
      "name": "mint",
      "outputs": [],
      "stateMutability": "nonpayable",
      "type": "function"
    },
    {
      "inputs": [
        {
          "internalType": "address",
          "name": "to_",
          "type": "address"
        },
        {
          "components": [
            {
              "internalType": "string",
              "name": "name",
              "type": "string"
            },
            {
              "internalType": "string",
              "name": "flavor",
              "type": "string"
            },
            {
              "internalType": "string[]",
              "name": "skills",
              "type": "string[]"
            },
            {
              "internalType": "uint32",
              "name": "lv",
              "type": "uint32"
            },
            {
              "internalType": "uint32",
              "name": "hp",
              "type": "uint32"
            },
            {
              "internalType": "uint32",
              "name": "atk",
              "type": "uint32"
            },
            {
              "internalType": "uint32",
              "name": "def",
              "type": "uint32"
            },
            {
              "internalType": "uint32",
              "name": "inte",
              "type": "uint32"
            },
            {
              "internalType": "uint32",
              "name": "mgr",
              "type": "uint32"
            },
            {
              "internalType": "uint32",
              "name": "agl",
              "type": "uint32"
            },
            {
              "internalType": "uint16",
              "name": "maxSkills",
              "type": "uint16"
            },
            {
              "internalType": "uint16",
              "name": "maxSkillsSet",
              "type": "uint16"
            }
          ],
          "internalType": "struct IPromptMonsters.Monster",
          "name": "monster_",
          "type": "tuple"
        }
      ],
      "name": "mintOnlyOwner",
      "outputs": [],
      "stateMutability": "nonpayable",
      "type": "function"
    },
    {
      "inputs": [],
      "name": "name",
      "outputs": [
        {
          "internalType": "string",
          "name": "",
          "type": "string"
        }
      ],
      "stateMutability": "view",
      "type": "function"
    },
    {
      "inputs": [],
      "name": "owner",
      "outputs": [
        {
          "internalType": "address",
          "name": "",
          "type": "address"
        }
      ],
      "stateMutability": "view",
      "type": "function"
    },
    {
      "inputs": [
        {
          "internalType": "uint256",
          "name": "tokenId",
          "type": "uint256"
        }
      ],
      "name": "ownerOf",
      "outputs": [
        {
          "internalType": "address",
          "name": "",
          "type": "address"
        }
      ],
      "stateMutability": "view",
      "type": "function"
    },
    {
      "inputs": [],
      "name": "proxiableUUID",
      "outputs": [
        {
          "internalType": "bytes32",
          "name": "",
          "type": "bytes32"
        }
      ],
      "stateMutability": "view",
      "type": "function"
    },
    {
      "inputs": [],
      "name": "renounceOwnership",
      "outputs": [],
      "stateMutability": "nonpayable",
      "type": "function"
    },
    {
      "inputs": [
        {
          "internalType": "address",
          "name": "from",
          "type": "address"
        },
        {
          "internalType": "address",
          "name": "to",
          "type": "address"
        },
        {
          "internalType": "uint256",
          "name": "tokenId",
          "type": "uint256"
        }
      ],
      "name": "safeTransferFrom",
      "outputs": [],
      "stateMutability": "nonpayable",
      "type": "function"
    },
    {
      "inputs": [
        {
          "internalType": "address",
          "name": "from",
          "type": "address"
        },
        {
          "internalType": "address",
          "name": "to",
          "type": "address"
        },
        {
          "internalType": "uint256",
          "name": "tokenId",
          "type": "uint256"
        },
        {
          "internalType": "bytes",
          "name": "data",
          "type": "bytes"
        }
      ],
      "name": "safeTransferFrom",
      "outputs": [],
      "stateMutability": "nonpayable",
      "type": "function"
    },
    {
      "inputs": [
        {
          "internalType": "address",
          "name": "operator",
          "type": "address"
        },
        {
          "internalType": "bool",
          "name": "approved",
          "type": "bool"
        }
      ],
      "name": "setApprovalForAll",
      "outputs": [],
      "stateMutability": "nonpayable",
      "type": "function"
    },
    {
      "inputs": [
        {
          "internalType": "string",
          "name": "newState_",
          "type": "string"
        }
      ],
      "name": "setExternalLink",
      "outputs": [],
      "stateMutability": "nonpayable",
      "type": "function"
    },
    {
      "inputs": [
        {
          "internalType": "bytes4",
          "name": "interfaceId",
          "type": "bytes4"
        }
      ],
      "name": "supportsInterface",
      "outputs": [
        {
          "internalType": "bool",
          "name": "",
          "type": "bool"
        }
      ],
      "stateMutability": "view",
      "type": "function"
    },
    {
      "inputs": [],
      "name": "symbol",
      "outputs": [
        {
          "internalType": "string",
          "name": "",
          "type": "string"
        }
      ],
      "stateMutability": "view",
      "type": "function"
    },
    {
      "inputs": [
        {
          "internalType": "uint256",
          "name": "tokenId_",
          "type": "uint256"
        }
      ],
      "name": "tokenURI",
      "outputs": [
        {
          "internalType": "string",
          "name": "uri",
          "type": "string"
        }
      ],
      "stateMutability": "view",
      "type": "function"
    },
    {
      "inputs": [
        {
          "internalType": "address",
          "name": "from",
          "type": "address"
        },
        {
          "internalType": "address",
          "name": "to",
          "type": "address"
        },
        {
          "internalType": "uint256",
          "name": "tokenId",
          "type": "uint256"
        }
      ],
      "name": "transferFrom",
      "outputs": [],
      "stateMutability": "nonpayable",
      "type": "function"
    },
    {
      "inputs": [
        {
          "internalType": "address",
          "name": "newOwner",
          "type": "address"
        }
      ],
      "name": "transferOwnership",
      "outputs": [],
      "stateMutability": "nonpayable",
      "type": "function"
    },
    {
      "inputs": [
        {
          "internalType": "address",
          "name": "newImplementation",
          "type": "address"
        }
      ],
      "name": "upgradeTo",
      "outputs": [],
      "stateMutability": "nonpayable",
      "type": "function"
    },
    {
      "inputs": [
        {
          "internalType": "address",
          "name": "newImplementation",
          "type": "address"
        },
        {
          "internalType": "bytes",
          "name": "data",
          "type": "bytes"
        }
      ],
      "name": "upgradeToAndCall",
      "outputs": [],
      "stateMutability": "payable",
      "type": "function"
    }
  ],
  "bytecode": "0x60a0604052306080523480156200001557600080fd5b506200002062000026565b620000e8565b600054610100900460ff1615620000935760405162461bcd60e51b815260206004820152602760248201527f496e697469616c697a61626c653a20636f6e747261637420697320696e697469604482015266616c697a696e6760c81b606482015260840160405180910390fd5b60005460ff9081161015620000e6576000805460ff191660ff9081179091556040519081527f7f26b83ff96e1f2b6a682f133852f6798a09c465da95921460cefb38474024989060200160405180910390a15b565b6080516146e7620001206000396000818161090d0152818161094d01528181610bed01528181610c2d0152610cbc01526146e76000f3fe6080604052600436106101b75760003560e01c80636352211e116100ec578063b5f8795b1161008a578063e8a3d48511610064578063e8a3d485146104db578063e985e9c5146104f0578063f2fde38b14610510578063f62d18881461053057600080fd5b8063b5f8795b1461047b578063b88d4fde1461049b578063c87b56dd146104bb57600080fd5b80638da5cb5b116100c65780638da5cb5b146103fb57806395d89b4114610419578063a22cb4651461042e578063b2664c2e1461044e57600080fd5b80636352211e146103a657806370a08231146103c6578063715018a6146103e657600080fd5b80633659cfe61161015957806342966c681161013357806342966c681461033a5780634f1ef2861461035a57806352d1902d1461036d57806352dd29d21461039057600080fd5b80633659cfe6146102da57806337b73f1a146102fa57806342842e0e1461031a57600080fd5b8063095ea7b311610195578063095ea7b31461024b5780630fd7efc41461026d5780631f9179211461029a57806323b872dd146102ba57600080fd5b806301ffc9a7146101bc57806306fdde03146101f1578063081812fc14610213575b600080fd5b3480156101c857600080fd5b506101dc6101d7366004613169565b610550565b60405190151581526020015b60405180910390f35b3480156101fd57600080fd5b506102066105a2565b6040516101e891906131d6565b34801561021f57600080fd5b5061023361022e3660046131e9565b610634565b6040516001600160a01b0390911681526020016101e8565b34801561025757600080fd5b5061026b61026636600461321e565b61065b565b005b34801561027957600080fd5b5061028d610288366004613248565b610775565b6040516101e89190613263565b3480156102a657600080fd5b5061026b6102b5366004613385565b6107e2565b3480156102c657600080fd5b5061026b6102d53660046133b9565b6108d2565b3480156102e657600080fd5b5061026b6102f5366004613248565b610903565b34801561030657600080fd5b5061026b6103153660046135fe565b6109e2565b34801561032657600080fd5b5061026b6103353660046133b9565b610b9f565b34801561034657600080fd5b5061026b6103553660046131e9565b610bba565b61026b61036836600461364b565b610be3565b34801561037957600080fd5b50610382610caf565b6040519081526020016101e8565b34801561039c57600080fd5b5061015f54610382565b3480156103b257600080fd5b506102336103c13660046131e9565b610d62565b3480156103d257600080fd5b506103826103e1366004613248565b610dc2565b3480156103f257600080fd5b5061026b610e48565b34801561040757600080fd5b506097546001600160a01b0316610233565b34801561042557600080fd5b50610206610e5c565b34801561043a57600080fd5b5061026b61044936600461368e565b610e6b565b34801561045a57600080fd5b5061046e6104693660046136ca565b610e76565b6040516101e891906137af565b34801561048757600080fd5b5061026b6104963660046138dc565b611286565b3480156104a757600080fd5b5061026b6104b6366004613910565b611437565b3480156104c757600080fd5b506102066104d63660046131e9565b61146f565b3480156104e757600080fd5b506102066117b7565b3480156104fc57600080fd5b506101dc61050b366004613977565b61183d565b34801561051c57600080fd5b5061026b61052b366004613248565b61186b565b34801561053c57600080fd5b5061026b61054b366004613385565b6118e1565b60006001600160e01b031982166380ac58cd60e01b148061058157506001600160e01b03198216635b5e139f60e01b145b8061059c57506301ffc9a760e01b6001600160e01b03198316145b92915050565b6060606580546105b1906139aa565b80601f01602080910402602001604051908101604052809291908181526020018280546105dd906139aa565b801561062a5780601f106105ff5761010080835404028352916020019161062a565b820191906000526020600020905b81548152906001019060200180831161060d57829003601f168201915b5050505050905090565b600061063f82611a5c565b506000908152606960205260409020546001600160a01b031690565b600061066682610d62565b9050806001600160a01b0316836001600160a01b0316036106d85760405162461bcd60e51b815260206004820152602160248201527f4552433732313a20617070726f76616c20746f2063757272656e74206f776e656044820152603960f91b60648201526084015b60405180910390fd5b336001600160a01b03821614806106f457506106f4813361183d565b6107665760405162461bcd60e51b815260206004820152603d60248201527f4552433732313a20617070726f76652063616c6c6572206973206e6f7420746f60448201527f6b656e206f776e6572206f7220617070726f76656420666f7220616c6c00000060648201526084016106cf565b6107708383611abb565b505050565b6001600160a01b038116600090815261016060209081526040918290208054835181840281018401909452808452606093928301828280156107d657602002820191906000526020600020905b8154815260200190600101908083116107c2575b50505050509050919050565b6107ea611b29565b600061016280546107fa906139aa565b80601f0160208091040260200160405190810160405280929190818152602001828054610826906139aa565b80156108735780601f1061084857610100808354040283529160200191610873565b820191906000526020600020905b81548152906001019060200180831161085657829003601f168201915b5050505050905081610162908161088a9190613a32565b50336001600160a01b03167ffceab947acbd3281d41fa085ba6d9503467fabd9e3d96e3ee0dbf6f8b04a9ca482846040516108c6929190613af1565b60405180910390a25050565b6108dc3382611b83565b6108f85760405162461bcd60e51b81526004016106cf90613b16565b610770838383611be2565b6001600160a01b037f000000000000000000000000000000000000000000000000000000000000000016300361094b5760405162461bcd60e51b81526004016106cf90613b63565b7f00000000000000000000000000000000000000000000000000000000000000006001600160a01b031661099460008051602061462b833981519152546001600160a01b031690565b6001600160a01b0316146109ba5760405162461bcd60e51b81526004016106cf90613baf565b6109c381611d53565b604080516000808252602082019092526109df91839190611d5b565b50565b6109ea611b29565b6109f2611ec6565b61015f805460018101825560009190915281518290600483027f8c9815a58669fc89297bdc7dd447c098116f98e79093735c0992d0967b696ed901908190610a3a9082613a32565b5060208201516001820190610a4f9082613a32565b5060408201518051610a6b916002840191602090910190613096565b5060608201516003919091018054608084015160a085015160c086015160e08701516101008801516101208901516101408a0151610160909a015163ffffffff998a1667ffffffffffffffff1990981697909717640100000000968a16969096029590951767ffffffffffffffff60401b1916600160401b9489169490940263ffffffff60601b191693909317600160601b928816929092029190911767ffffffffffffffff60801b1916600160801b9187169190910263ffffffff60a01b191617600160a01b918616919091021765ffffffffffff60c01b1916600160c01b949091169390930261ffff60e01b191692909217600160e01b61ffff94851602176001600160f01b0316600160f01b9390921692909202179055610b8f8382611f21565b50610b9b600161012d55565b5050565b61077083838360405180602001604052806000815250611437565b610bc2611ec6565b610bd8336097546001600160a01b031683610b9f565b6109df600161012d55565b6001600160a01b037f0000000000000000000000000000000000000000000000000000000000000000163003610c2b5760405162461bcd60e51b81526004016106cf90613b63565b7f00000000000000000000000000000000000000000000000000000000000000006001600160a01b0316610c7460008051602061462b833981519152546001600160a01b031690565b6001600160a01b031614610c9a5760405162461bcd60e51b81526004016106cf90613baf565b610ca382611d53565b610b9b82826001611d5b565b6000306001600160a01b037f00000000000000000000000000000000000000000000000000000000000000001614610d4f5760405162461bcd60e51b815260206004820152603860248201527f555550535570677261646561626c653a206d757374206e6f742062652063616c60448201527f6c6564207468726f7567682064656c656761746563616c6c000000000000000060648201526084016106cf565b5060008051602061462b83398151915290565b6000818152606760205260408120546001600160a01b03168061059c5760405162461bcd60e51b8152602060048201526018602482015277115490cdcc8c4e881a5b9d985b1a59081d1bdad95b88125160421b60448201526064016106cf565b60006001600160a01b038216610e2c5760405162461bcd60e51b815260206004820152602960248201527f4552433732313a2061646472657373207a65726f206973206e6f7420612076616044820152683634b21037bbb732b960b91b60648201526084016106cf565b506001600160a01b031660009081526068602052604090205490565b610e50611b29565b610e5a6000611f43565b565b6060606680546105b1906139aa565b610b9b338383611f95565b805161015f5460609190811115610ee35760405162461bcd60e51b815260206004820152602b60248201527f50726f6d70744d6f6e73746572733a20746f6b656e4964734c656e677468206960448201526a7320746f6f206c6172676560a81b60648201526084016106cf565b806001600160401b03811115610efb57610efb6132a7565b604051908082528060200260200182016040528015610f8b57816020015b60408051610180810182526060808252602080830182905292820181905260009082018190526080820181905260a0820181905260c0820181905260e082018190526101008201819052610120820181905261014082018190526101608201528252600019909201910181610f195790505b50915060005b8181101561127f5761015f8181548110610fad57610fad613bfb565b906000526020600020906004020160405180610180016040529081600082018054610fd7906139aa565b80601f0160208091040260200160405190810160405280929190818152602001828054611003906139aa565b80156110505780601f1061102557610100808354040283529160200191611050565b820191906000526020600020905b81548152906001019060200180831161103357829003601f168201915b50505050508152602001600182018054611069906139aa565b80601f0160208091040260200160405190810160405280929190818152602001828054611095906139aa565b80156110e25780601f106110b7576101008083540402835291602001916110e2565b820191906000526020600020905b8154815290600101906020018083116110c557829003601f168201915b5050505050815260200160028201805480602002602001604051908101604052809291908181526020016000905b828210156111bc57838290600052602060002001805461112f906139aa565b80601f016020809104026020016040519081016040528092919081815260200182805461115b906139aa565b80156111a85780601f1061117d576101008083540402835291602001916111a8565b820191906000526020600020905b81548152906001019060200180831161118b57829003601f168201915b505050505081526020019060010190611110565b505050908252506003919091015463ffffffff8082166020840152640100000000820481166040840152600160401b820481166060840152600160601b820481166080840152600160801b8204811660a0840152600160a01b8204811660c0840152600160c01b82041660e083015261ffff600160e01b82048116610100840152600160f01b9091041661012090910152835184908390811061126157611261613bfb565b6020026020010181905250808061127790613c27565b915050610f91565b5050919050565b61128e611ec6565b61015f805460018101825560009190915281518290600483027f8c9815a58669fc89297bdc7dd447c098116f98e79093735c0992d0967b696ed9019081906112d69082613a32565b50602082015160018201906112eb9082613a32565b5060408201518051611307916002840191602090910190613096565b5060608201516003919091018054608084015160a085015160c086015160e08701516101008801516101208901516101408a0151610160909a015163ffffffff998a1667ffffffffffffffff1990981697909717640100000000968a16969096029590951767ffffffffffffffff60401b1916600160401b9489169490940263ffffffff60601b191693909317600160601b928816929092029190911767ffffffffffffffff60801b1916600160801b9187169190910263ffffffff60a01b191617600160a01b918616919091021765ffffffffffff60c01b1916600160c01b949091169390930261ffff60e01b191692909217600160e01b61ffff94851602176001600160f01b0316600160f01b939092169290920217905561142b3382611f21565b506109df600161012d55565b6114413383611b83565b61145d5760405162461bcd60e51b81526004016106cf90613b16565b61146984848484612063565b50505050565b606061147a82611a5c565b600061148583612096565b9050600061015f848154811061149d5761149d613bfb565b9060005260206000209060040201604051806101800160405290816000820180546114c7906139aa565b80601f01602080910402602001604051908101604052809291908181526020018280546114f3906139aa565b80156115405780601f1061151557610100808354040283529160200191611540565b820191906000526020600020905b81548152906001019060200180831161152357829003601f168201915b50505050508152602001600182018054611559906139aa565b80601f0160208091040260200160405190810160405280929190818152602001828054611585906139aa565b80156115d25780601f106115a7576101008083540402835291602001916115d2565b820191906000526020600020905b8154815290600101906020018083116115b557829003601f168201915b5050505050815260200160028201805480602002602001604051908101604052809291908181526020016000905b828210156116ac57838290600052602060002001805461161f906139aa565b80601f016020809104026020016040519081016040528092919081815260200182805461164b906139aa565b80156116985780601f1061166d57610100808354040283529160200191611698565b820191906000526020600020905b81548152906001019060200180831161167b57829003601f168201915b505050505081526020019060010190611600565b505050908252506003919091015463ffffffff808216602080850191909152640100000000830482166040850152600160401b830482166060850152600160601b830482166080850152600160801b8304821660a0850152600160a01b8304821660c0850152600160c01b830490911660e084015261ffff600160e01b83048116610100850152600160f01b909204909116610120909201919091528151908201519192506000916117889190611762866125af565b60405160200161177493929190613c5c565b6040516020818303038152906040526125af565b905060008160405160200161179d9190613d1f565b60408051601f198184030181529190529695505050505050565b606060006117c36105a2565b90506000816040516020016117d89190613d64565b6040516020818303038152906040529050600061180f83846117f9856125af565b6101626040516020016117749493929190613f11565b90506000816040516020016118249190613d1f565b60408051601f1981840301815291905295945050505050565b6001600160a01b039182166000908152606a6020908152604080832093909416825291909152205460ff1690565b611873611b29565b6001600160a01b0381166118d85760405162461bcd60e51b815260206004820152602660248201527f4f776e61626c653a206e6577206f776e657220697320746865207a65726f206160448201526564647265737360d01b60648201526084016106cf565b6109df81611f43565b600054610100900460ff16158080156119015750600054600160ff909116105b8061191b5750303b15801561191b575060005460ff166001145b61197e5760405162461bcd60e51b815260206004820152602e60248201527f496e697469616c697a61626c653a20636f6e747261637420697320616c72656160448201526d191e481a5b9a5d1a585b1a5e995960921b60648201526084016106cf565b6000805460ff1916600117905580156119a1576000805461ff0019166101001790555b6119ed6040518060400160405280600f81526020016e50726f6d7074204d6f6e737465727360881b8152506040518060400160405280600381526020016226a7a760e91b815250612701565b6119f5612732565b6119fd612761565b611a05612788565b610162611a128382613a32565b508015610b9b576000805461ff0019169055604051600181527f7f26b83ff96e1f2b6a682f133852f6798a09c465da95921460cefb38474024989060200160405180910390a15050565b6000818152606760205260409020546001600160a01b03166109df5760405162461bcd60e51b8152602060048201526018602482015277115490cdcc8c4e881a5b9d985b1a59081d1bdad95b88125160421b60448201526064016106cf565b600081815260696020526040902080546001600160a01b0319166001600160a01b0384169081179091558190611af082610d62565b6001600160a01b03167f8c5be1e5ebec7d5bd14f71427d1e84f3dd0314c0f7b2291e5b200ac8c7c3b92560405160405180910390a45050565b6097546001600160a01b03163314610e5a5760405162461bcd60e51b815260206004820181905260248201527f4f776e61626c653a2063616c6c6572206973206e6f7420746865206f776e657260448201526064016106cf565b600080611b8f83610d62565b9050806001600160a01b0316846001600160a01b03161480611bb65750611bb6818561183d565b80611bda5750836001600160a01b0316611bcf84610634565b6001600160a01b0316145b949350505050565b826001600160a01b0316611bf582610d62565b6001600160a01b031614611c1b5760405162461bcd60e51b81526004016106cf9061407e565b6001600160a01b038216611c7d5760405162461bcd60e51b8152602060048201526024808201527f4552433732313a207472616e7366657220746f20746865207a65726f206164646044820152637265737360e01b60648201526084016106cf565b611c8a83838360016127b7565b826001600160a01b0316611c9d82610d62565b6001600160a01b031614611cc35760405162461bcd60e51b81526004016106cf9061407e565b600081815260696020908152604080832080546001600160a01b03199081169091556001600160a01b0387811680865260688552838620805460001901905590871680865283862080546001019055868652606790945282852080549092168417909155905184937fddf252ad1be2c89b69c2b068fc378daa952ba7f163c4a11628f55a4df523b3ef91a4505050565b6109df611b29565b7f4910fdfa16fed3260ed0e7147f7cc6da11a60208b5b9406d12a635614ffd91435460ff1615611d8e5761077083612800565b826001600160a01b03166352d1902d6040518163ffffffff1660e01b8152600401602060405180830381865afa925050508015611de8575060408051601f3d908101601f19168201909252611de5918101906140c3565b60015b611e4b5760405162461bcd60e51b815260206004820152602e60248201527f45524331393637557067726164653a206e657720696d706c656d656e7461746960448201526d6f6e206973206e6f74205555505360901b60648201526084016106cf565b60008051602061462b8339815191528114611eba5760405162461bcd60e51b815260206004820152602960248201527f45524331393637557067726164653a20756e737570706f727465642070726f786044820152681a58589b195555525160ba1b60648201526084016106cf565b5061077083838361289c565b600261012d5403611f195760405162461bcd60e51b815260206004820152601f60248201527f5265656e7472616e637947756172643a207265656e7472616e742063616c6c0060448201526064016106cf565b600261012d55565b610b9b8282604051806020016040528060008152506128c1565b600161012d55565b609780546001600160a01b038381166001600160a01b0319831681179093556040519116919082907f8be0079c531659141344cd1fd0a4f28419497f9722a3daafe3b4186f6b6457e090600090a35050565b816001600160a01b0316836001600160a01b031603611ff65760405162461bcd60e51b815260206004820152601960248201527f4552433732313a20617070726f766520746f2063616c6c65720000000000000060448201526064016106cf565b6001600160a01b038381166000818152606a6020908152604080832094871680845294825291829020805460ff191686151590811790915591519182527f17307eab39ab6107e8899845ad3d59bd9653f200f220920489ca2b5937696c31910160405180910390a3505050565b61206e848484611be2565b61207a848484846128f4565b6114695760405162461bcd60e51b81526004016106cf906140dc565b6060600061015f83815481106120ae576120ae613bfb565b9060005260206000209060040201604051806101800160405290816000820180546120d8906139aa565b80601f0160208091040260200160405190810160405280929190818152602001828054612104906139aa565b80156121515780601f1061212657610100808354040283529160200191612151565b820191906000526020600020905b81548152906001019060200180831161213457829003601f168201915b5050505050815260200160018201805461216a906139aa565b80601f0160208091040260200160405190810160405280929190818152602001828054612196906139aa565b80156121e35780601f106121b8576101008083540402835291602001916121e3565b820191906000526020600020905b8154815290600101906020018083116121c657829003601f168201915b5050505050815260200160028201805480602002602001604051908101604052809291908181526020016000905b828210156122bd578382906000526020600020018054612230906139aa565b80601f016020809104026020016040519081016040528092919081815260200182805461225c906139aa565b80156122a95780601f1061227e576101008083540402835291602001916122a9565b820191906000526020600020905b81548152906001019060200180831161228c57829003601f168201915b505050505081526020019060010190612211565b505050908252506003919091015463ffffffff8082166020840152640100000000820481166040840152600160401b820481166060840152600160601b820481166080840152600160801b8204811660a0840152600160a01b8204811660c0840152600160c01b82041660e083015261ffff600160e01b82048116610100840152600160f01b9091041661012090910152805190915061236290600a906014906129f5565b6123a0600a603c61237c856060015163ffffffff16612a34565b60405160200161238c919061412e565b6040516020818303038152906040526129f5565b6123ca600a60646123ba866080015163ffffffff16612a34565b60405160200161238c919061415a565b6123f4600a60786123e48760a0015163ffffffff16612a34565b60405160200161238c9190614179565b61241e600a608c61240e8860c0015163ffffffff16612a34565b60405160200161238c91906141a6565b612448600a60a06124388960e0015163ffffffff16612a34565b60405160200161238c91906141c6565b612473600a60b46124638a610100015163ffffffff16612a34565b60405160200161238c91906141e6565b61249e600a60c861248e8b610120015163ffffffff16612a34565b60405160200161238c9190614206565b6040516020016124b5989796959493929190614226565b60408051601f19818403018152919052915060f060005b8260400151518110156125855761016083015161ffff166124ee8260016143b2565b116125855783612550600a6125048460146143c5565b61250e90866143b2565b61252161251c8660016143b2565b612a34565b8760400151868151811061253757612537613bfb565b602002602001015160405160200161238c9291906143dc565b60405160200161256192919061442a565b6040516020818303038152906040529350808061257d90613c27565b9150506124cc565b50826040516020016125979190614459565b60405160208183030381529060405292505050919050565b606081516000036125ce57505060408051602081019091526000815290565b600060405180606001604052806040815260200161464b60409139905060006003845160026125fd91906143b2565b6126079190614483565b6126129060046143c5565b6001600160401b03811115612629576126296132a7565b6040519080825280601f01601f191660200182016040528015612653576020820181803683370190505b509050600182016020820185865187015b808210156126bf576003820191508151603f8160121c168501518453600184019350603f81600c1c168501518453600184019350603f8160061c168501518453600184019350603f8116850151845350600183019250612664565b50506003865106600181146126db57600281146126ee576126f6565b603d6001830353603d60028303536126f6565b603d60018303535b509195945050505050565b600054610100900460ff166127285760405162461bcd60e51b81526004016106cf906144a5565b610b9b8282612ac6565b600054610100900460ff166127595760405162461bcd60e51b81526004016106cf906144a5565b610e5a612b06565b600054610100900460ff16610e5a5760405162461bcd60e51b81526004016106cf906144a5565b600054610100900460ff166127af5760405162461bcd60e51b81526004016106cf906144a5565b610e5a612b36565b6001600160a01b0384166127d4576127cf8383612b5d565b611469565b6001600160a01b0383166127ec576127cf8483612ba2565b6127f68483612ba2565b6127cf8383612b5d565b6001600160a01b0381163b61286d5760405162461bcd60e51b815260206004820152602d60248201527f455243313936373a206e657720696d706c656d656e746174696f6e206973206e60448201526c1bdd08184818dbdb9d1c9858dd609a1b60648201526084016106cf565b60008051602061462b83398151915280546001600160a01b0319166001600160a01b0392909216919091179055565b6128a583612ca7565b6000825111806128b25750805b15610770576114698383612ce7565b6128cb8383612ddb565b6128d860008484846128f4565b6107705760405162461bcd60e51b81526004016106cf906140dc565b60006001600160a01b0384163b156129ea57604051630a85bd0160e11b81526001600160a01b0385169063150b7a02906129389033908990889088906004016144f0565b6020604051808303816000875af1925050508015612973575060408051601f3d908101601f191682019092526129709181019061452d565b60015b6129d0573d8080156129a1576040519150601f19603f3d011682016040523d82523d6000602084013e6129a6565b606091505b5080516000036129c85760405162461bcd60e51b81526004016106cf906140dc565b805181602001fd5b6001600160e01b031916630a85bd0160e11b149050611bda565b506001949350505050565b6060612a0084612a34565b612a0984612a34565b83604051602001612a1c9392919061454a565b60405160208183030381529060405290509392505050565b60606000612a4183612f74565b60010190506000816001600160401b03811115612a6057612a606132a7565b6040519080825280601f01601f191660200182016040528015612a8a576020820181803683370190505b5090508181016020015b600019016f181899199a1a9b1b9c1cb0b131b232b360811b600a86061a8153600a8504945084612a9457509392505050565b600054610100900460ff16612aed5760405162461bcd60e51b81526004016106cf906144a5565b6065612af98382613a32565b5060666107708282613a32565b600054610100900460ff16612b2d5760405162461bcd60e51b81526004016106cf906144a5565b610e5a33611f43565b600054610100900460ff16611f3b5760405162461bcd60e51b81526004016106cf906144a5565b6001600160a01b039091166000908152610160602081815260408084208054610161845282862087875284529185208290559282526001810183559183529091200155565b6001600160a01b0382166000908152610160602052604081208054612bc9906001906145e5565b81548110612bd957612bd9613bfb565b90600052602060002001549050808214612c40576001600160a01b0383166000818152610161602090815260408083208684528252808320549383526101609091529020805483919083908110612c3257612c32613bfb565b600091825260209091200155505b6001600160a01b038316600090815261016060205260409020805480612c6857612c686145f8565b6000828152602080822083016000199081018390559092019092556001600160a01b039094168152610161845260408082209382529290935250812055565b612cb081612800565b6040516001600160a01b038216907fbc7cd75a20ee27fd9adebab32041f755214dbc6bffa90cc0225b39da2e5c2d3b90600090a250565b60606001600160a01b0383163b612d4f5760405162461bcd60e51b815260206004820152602660248201527f416464726573733a2064656c65676174652063616c6c20746f206e6f6e2d636f6044820152651b9d1c9858dd60d21b60648201526084016106cf565b600080846001600160a01b031684604051612d6a919061460e565b600060405180830381855af49150503d8060008114612da5576040519150601f19603f3d011682016040523d82523d6000602084013e612daa565b606091505b5091509150612dd2828260405180606001604052806027815260200161468b6027913961304c565b95945050505050565b6001600160a01b038216612e315760405162461bcd60e51b815260206004820181905260248201527f4552433732313a206d696e7420746f20746865207a65726f206164647265737360448201526064016106cf565b6000818152606760205260409020546001600160a01b031615612e965760405162461bcd60e51b815260206004820152601c60248201527f4552433732313a20746f6b656e20616c7265616479206d696e7465640000000060448201526064016106cf565b612ea46000838360016127b7565b6000818152606760205260409020546001600160a01b031615612f095760405162461bcd60e51b815260206004820152601c60248201527f4552433732313a20746f6b656e20616c7265616479206d696e7465640000000060448201526064016106cf565b6001600160a01b038216600081815260686020908152604080832080546001019055848352606790915280822080546001600160a01b0319168417905551839291907fddf252ad1be2c89b69c2b068fc378daa952ba7f163c4a11628f55a4df523b3ef908290a45050565b60008072184f03e93ff9f4daa797ed6e38ed64bf6a1f0160401b8310612fb35772184f03e93ff9f4daa797ed6e38ed64bf6a1f0160401b830492506040015b6d04ee2d6d415b85acef81000000008310612fdf576d04ee2d6d415b85acef8100000000830492506020015b662386f26fc100008310612ffd57662386f26fc10000830492506010015b6305f5e1008310613015576305f5e100830492506008015b612710831061302957612710830492506004015b6064831061303b576064830492506002015b600a831061059c5760010192915050565b6060831561305b575081613065565b613065838361306c565b9392505050565b81511561307c5781518083602001fd5b8060405162461bcd60e51b81526004016106cf91906131d6565b8280548282559060005260206000209081019282156130dc579160200282015b828111156130dc57825182906130cc9082613a32565b50916020019190600101906130b6565b506130e89291506130ec565b5090565b808211156130e85760006131008282613109565b506001016130ec565b508054613115906139aa565b6000825580601f10613125575050565b601f0160209004906000526020600020908101906109df91905b808211156130e8576000815560010161313f565b6001600160e01b0319811681146109df57600080fd5b60006020828403121561317b57600080fd5b813561306581613153565b60005b838110156131a1578181015183820152602001613189565b50506000910152565b600081518084526131c2816020860160208601613186565b601f01601f19169290920160200192915050565b60208152600061306560208301846131aa565b6000602082840312156131fb57600080fd5b5035919050565b80356001600160a01b038116811461321957600080fd5b919050565b6000806040838503121561323157600080fd5b61323a83613202565b946020939093013593505050565b60006020828403121561325a57600080fd5b61306582613202565b6020808252825182820181905260009190848201906040850190845b8181101561329b5783518352928401929184019160010161327f565b50909695505050505050565b634e487b7160e01b600052604160045260246000fd5b60405161018081016001600160401b03811182821017156132e0576132e06132a7565b60405290565b604051601f8201601f191681016001600160401b038111828210171561330e5761330e6132a7565b604052919050565b600082601f83011261332757600080fd5b81356001600160401b03811115613340576133406132a7565b613353601f8201601f19166020016132e6565b81815284602083860101111561336857600080fd5b816020850160208301376000918101602001919091529392505050565b60006020828403121561339757600080fd5b81356001600160401b038111156133ad57600080fd5b611bda84828501613316565b6000806000606084860312156133ce57600080fd5b6133d784613202565b92506133e560208501613202565b9150604084013590509250925092565b60006001600160401b0382111561340e5761340e6132a7565b5060051b60200190565b600082601f83011261342957600080fd5b8135602061343e613439836133f5565b6132e6565b82815260059290921b8401810191818101908684111561345d57600080fd5b8286015b8481101561349c5780356001600160401b038111156134805760008081fd5b61348e8986838b0101613316565b845250918301918301613461565b509695505050505050565b803563ffffffff8116811461321957600080fd5b803561ffff8116811461321957600080fd5b600061018082840312156134e057600080fd5b6134e86132bd565b905081356001600160401b038082111561350157600080fd5b61350d85838601613316565b8352602084013591508082111561352357600080fd5b61352f85838601613316565b6020840152604084013591508082111561354857600080fd5b5061355584828501613418565b604083015250613567606083016134a7565b6060820152613578608083016134a7565b608082015261358960a083016134a7565b60a082015261359a60c083016134a7565b60c08201526135ab60e083016134a7565b60e08201526101006135be8184016134a7565b908201526101206135d08382016134a7565b908201526101406135e28382016134bb565b908201526101606135f48382016134bb565b9082015292915050565b6000806040838503121561361157600080fd5b61361a83613202565b915060208301356001600160401b0381111561363557600080fd5b613641858286016134cd565b9150509250929050565b6000806040838503121561365e57600080fd5b61366783613202565b915060208301356001600160401b0381111561368257600080fd5b61364185828601613316565b600080604083850312156136a157600080fd5b6136aa83613202565b9150602083013580151581146136bf57600080fd5b809150509250929050565b600060208083850312156136dd57600080fd5b82356001600160401b038111156136f357600080fd5b8301601f8101851361370457600080fd5b8035613712613439826133f5565b81815260059190911b8201830190838101908783111561373157600080fd5b928401925b8284101561374f57833582529284019290840190613736565b979650505050505050565b600081518084526020808501808196508360051b8101915082860160005b858110156137a25782840389526137908483516131aa565b98850198935090840190600101613778565b5091979650505050505050565b60006020808301818452808551808352604092508286019150828160051b87010184880160005b838110156138ce57603f19898403018552815161018081518186526137fd828701826131aa565b915050888201518582038a87015261381582826131aa565b915050878201518582038987015261382d828261375a565b9150506060808301516138478288018263ffffffff169052565b505060808281015163ffffffff9081169187019190915260a08084015182169087015260c08084015182169087015260e0808401518216908701526101008084015182169087015261012080840151909116908601526101408083015161ffff908116918701919091526101609283015116919094015293860193908601906001016137d6565b509098975050505050505050565b6000602082840312156138ee57600080fd5b81356001600160401b0381111561390457600080fd5b611bda848285016134cd565b6000806000806080858703121561392657600080fd5b61392f85613202565b935061393d60208601613202565b92506040850135915060608501356001600160401b0381111561395f57600080fd5b61396b87828801613316565b91505092959194509250565b6000806040838503121561398a57600080fd5b61399383613202565b91506139a160208401613202565b90509250929050565b600181811c908216806139be57607f821691505b6020821081036139de57634e487b7160e01b600052602260045260246000fd5b50919050565b601f82111561077057600081815260208120601f850160051c81016020861015613a0b5750805b601f850160051c820191505b81811015613a2a57828155600101613a17565b505050505050565b81516001600160401b03811115613a4b57613a4b6132a7565b613a5f81613a5984546139aa565b846139e4565b602080601f831160018114613a945760008415613a7c5750858301515b600019600386901b1c1916600185901b178555613a2a565b600085815260208120601f198616915b82811015613ac357888601518255948401946001909101908401613aa4565b5085821015613ae15787850151600019600388901b60f8161c191681555b5050505050600190811b01905550565b604081526000613b0460408301856131aa565b8281036020840152612dd281856131aa565b6020808252602d908201527f4552433732313a2063616c6c6572206973206e6f7420746f6b656e206f776e6560408201526c1c881bdc88185c1c1c9bdd9959609a1b606082015260800190565b6020808252602c908201527f46756e6374696f6e206d7573742062652063616c6c6564207468726f7567682060408201526b19195b1959d85d1958d85b1b60a21b606082015260800190565b6020808252602c908201527f46756e6374696f6e206d7573742062652063616c6c6564207468726f7567682060408201526b6163746976652070726f787960a01b606082015260800190565b634e487b7160e01b600052603260045260246000fd5b634e487b7160e01b600052601160045260246000fd5b600060018201613c3957613c39613c11565b5060010190565b60008151613c52818560208601613186565b9290920192915050565b693d913730b6b2911d101160b11b81528351600090613c8281600a850160208901613186565b72111610113232b9b1b934b83a34b7b7111d101160691b600a918401918201528451613cb581601d840160208901613186565b7f222c2022696d616765223a2022646174613a696d6167652f7376672b786d6c3b601d92909101918201526618985cd94d8d0b60ca1b603d8201528351613d03816044840160208801613186565b61227d60f01b6044929091019182015260460195945050505050565b7f646174613a6170706c69636174696f6e2f6a736f6e3b6261736536342c000000815260008251613d5781601d850160208701613186565b91909101601d0192915050565b7f3c73766720786d6c6e733d27687474703a2f2f7777772e77332e6f72672f323081527f30302f73766727207072657365727665417370656374526174696f3d27784d6960208201527f6e594d696e206d656574272076696577426f783d27302030203335302033353060408201527f273e3c7374796c653e2e62617365207b2066696c6c3a2077686974653b20666f60608201527f6e742d66616d696c793a2073657269663b20666f6e742d73697a653a2032347060808201527f783b207d3c2f7374796c653e3c726563742077696474683d273130302527206860a08201527f65696768743d2731303025272066696c6c3d27626c61636b27202f3e3c74657860c08201527f7420783d273530252720793d273530252720636c6173733d276261736527206460e08201527f6f6d696e616e742d626173656c696e653d276d6964646c652720746578742d616101008201526e3731b437b91e93b6b4b2323632939f60891b610120820152600061012f8351613ee88183860160208801613186565b8301613f058282016c1e17ba32bc3a1f1e17b9bb339f60991b9052565b61013c01949350505050565b693d913730b6b2911d101160b11b815284516000906020613f3882600a8601838b01613186565b72111610113232b9b1b934b83a34b7b7111d101160691b600a928501928301528651613f6a81601d8501848b01613186565b7f69732047656e657261746976652041492047616d652e222c2022696d61676522601d93909101928301527f3a2022646174613a696d6167652f7376672b786d6c3b6261736536342c000000603d8301528551613fcd81605a8501848a01613186565b741116101132bc3a32b93730b62fb634b735911d101160591b605a93909101928301528454606f90600090614001816139aa565b60018281168015614019576001811461403257614062565b60ff198416888701528215158302880186019450614062565b8a6000528660002060005b848110156140585781548a820189015290830190880161403d565b5050858389010194505b505061227d60f01b835250506002019998505050505050505050565b60208082526025908201527f4552433732313a207472616e736665722066726f6d20696e636f72726563742060408201526437bbb732b960d91b606082015260800190565b6000602082840312156140d557600080fd5b5051919050565b60208082526032908201527f4552433732313a207472616e7366657220746f206e6f6e20455243373231526560408201527131b2b4bb32b91034b6b83632b6b2b73a32b960711b606082015260800190565b630262b1d160e51b81526000825161414d816004850160208701613186565b9190910160040192915050565b63024281d160e51b81526000825161414d816004850160208701613186565b64020aa259d160dd1b815260008251614199816005850160208701613186565b9190910160050192915050565b6402222a31d160dd1b815260008251614199816005850160208701613186565b64024a72a1d160dd1b815260008251614199816005850160208701613186565b64026a3a91d160dd1b815260008251614199816005850160208701613186565b64020a3a61d160dd1b815260008251614199816005850160208701613186565b7f3c73766720786d6c6e733d22687474703a2f2f7777772e77332e6f72672f323081527f30302f73766722207072657365727665417370656374526174696f3d22784d6960208201527f6e594d696e206d656574222076696577426f783d22302030203335302033353060408201527f223e3c7374796c653e2e62617365207b2066696c6c3a2077686974653b20666f60608201527f6e742d66616d696c793a2073657269663b20666f6e742d73697a653a2031347060808201527f783b207d3c2f7374796c653e3c726563742077696474683d223130302522206860a08201527f65696768743d2231303025222066696c6c3d22626c61636b22202f3e0000000060c0820152600089516143428160dc850160208e01613186565b8951908301906143598160dc840160208e01613186565b895191019061436f8160dc840160208d01613186565b6143a261439c61439661439061438a60dc868801018e613c40565b8c613c40565b8a613c40565b88613c40565b86613c40565b9c9b505050505050505050505050565b8082018082111561059c5761059c613c11565b808202811582820484141761059c5761059c613c11565b6414dada5b1b60da1b8152600083516143fc816005850160208801613186565b6101d160f51b600591840191820152835161441e816007840160208801613186565b01600701949350505050565b6000835161443c818460208801613186565b835190830190614450818360208801613186565b01949350505050565b6000825161446b818460208701613186565b651e17b9bb339f60d11b920191825250600601919050565b6000826144a057634e487b7160e01b600052601260045260246000fd5b500490565b6020808252602b908201527f496e697469616c697a61626c653a20636f6e7472616374206973206e6f74206960408201526a6e697469616c697a696e6760a81b606082015260800190565b6001600160a01b0385811682528416602082015260408101839052608060608201819052600090614523908301846131aa565b9695505050505050565b60006020828403121561453f57600080fd5b815161306581613153565b681e3a32bc3a103c1e9160b91b8152835160009061456f816009850160208901613186565b6411103c9e9160d91b600991840191820152845161459481600e840160208901613186565b6e111031b630b9b99e913130b9b2911f60891b600e929091019182015283516145c481601d840160208801613186565b661e17ba32bc3a1f60c91b601d929091019182015260240195945050505050565b8181038181111561059c5761059c613c11565b634e487b7160e01b600052603160045260246000fd5b60008251614620818460208701613186565b919091019291505056fe360894a13ba1a3210667c828492db98dca3e2076cc3735a920a3ca505d382bbc4142434445464748494a4b4c4d4e4f505152535455565758595a6162636465666768696a6b6c6d6e6f707172737475767778797a303132333435363738392b2f416464726573733a206c6f772d6c6576656c2064656c65676174652063616c6c206661696c6564a2646970667358221220045cc81b15729a350143d0a035d73659c8d79b30cbe9d2fd3f43ce11b6d9c44e64736f6c63430008120033",
  "linkReferences": {},
  "deployedLinkReferences": {}
}